{
    "extCodeHashOfDeletedAccountDynamic_Constantinople": {
        "_info": {
            "comment": "5) a blockchain test with block having 2/3 transactions. account a is in the state with the code before the first transaction. 1st transaction (sstore 1 codehash(a)) 2nd transaction suicide a (could be merged with 1st transaction) 3d transaction (sstore 2 codehash(a)) check by expect section sstore value of 1 and 2.",
            "filledwith": "testeth 1.6.0-alpha.0-12+commit.05b55e64",
            "lllcversion": "Version: 0.5.0-develop.2018.11.9+commit.9709dfe0.Linux.g++",
            "source": "src/BlockchainTestsFiller/bcStateTests/extCodeHashOfDeletedAccountDynamicFiller.json",
            "sourceHash": "64dd335d28bf628f82226ec0b033f5aef1153d6e07d04c1e01124e998d793667"
        },
        "blocks": [
            {
                "blockHeader": {
                    "bloom": "0x00000000000000000000000000000000000000000000000000000000000000000000000000000000000000000000000000000000000000000000000000000000000000000000000000000000000000000000000000000000000000000000000000000000000000000000000000000000000000000000000000000000000000000000000000000000000000000000000000000000000000000000000000000000000000000000000000000000000000000000000000000000000000000000000000000000000000000000000000000000000000000000000000000000000000000000000000000000000000000000000000000000000000000000000000000000",
                    "coinbase": "0x8888f1f195afa192cfee860698584c030f4c9db1",
                    "difficulty": "0x020000",
                    "extraData": "",
                    "gasLimit": "0x2625a64",
                    "gasUsed": "0x032c08",
                    "hash": "0x2f38672c21b9e043c276e812e097fcb7cd83157b85d32a795894ff4ffe9c7795",
                    "mixHash": "0x0000000000000000000000000000000000000000000000000000000000000000",
                    "nonce": "0x0000000000000000",
                    "number": "0x01",
                    "parentHash": "0x661c380494d37f6f2712c03fa8a5b69061ad64529bf2504cae5a20da11d31aa9",
                    "receiptTrie": "0x6a906f9894eea0029502d2ab3b7bd439e28d4a16adec80060bb99b3afcb57018",
                    "stateRoot": "0x1aa02726b7d31fb0c87755969a83983ab4575f9e9de7eb81499d3f2341abfeaa",
                    "timestamp": "0x5c477018",
                    "transactionsTrie": "0xe6cfeb14af7b3a91b1446f7e1a38c32998d2225b23b41d0a30d89980bba67e42",
                    "uncleHash": "0x1dcc4de8dec75d7aab85b567b6ccd41ad312451b948a7413f0a142fd40d49347"
                },
                "blocknumber": "",
                "rlp": "0xf90329f901fca0661c380494d37f6f2712c03fa8a5b69061ad64529bf2504cae5a20da11d31aa9a01dcc4de8dec75d7aab85b567b6ccd41ad312451b948a7413f0a142fd40d49347948888f1f195afa192cfee860698584c030f4c9db1a01aa02726b7d31fb0c87755969a83983ab4575f9e9de7eb81499d3f2341abfeaaa0e6cfeb14af7b3a91b1446f7e1a38c32998d2225b23b41d0a30d89980bba67e42a06a906f9894eea0029502d2ab3b7bd439e28d4a16adec80060bb99b3afcb57018b901000000000000000000000000000000000000000000000000000000000000000000000000000000000000000000000000000000000000000000000000000000000000000000000000000000000000000000000000000000000000000000000000000000000000000000000000000000000000000000000000000000000000000000000000000000000000000000000000000000000000000000000000000000000000000000000000000000000000000000000000000000000000000000000000000000000000000000000000000000000000000000000000000000000000000000000000000000000000000000000000000000000000000000000000000000000083020000018402625a6483032c08845c47701880a0000000000000000000000000000000000000000000000000000000000000000088000000000000000080f90126f860800183061a8094100000000000000000000000000000000000000080801ca0436c8420915217ae867d043179d78b4a8abc7a66f7658df0a06d4aa1f60475f3a017eab00aa21e61a07156519a1639a46bf5fb97e3fb07ea39ca885e9bb9145360f860010183061a8094110000000000000000000000000000000000000080801ba0211f2484b4229df13ba874c8d0daea7aa63f7cfb58bcaeac30da082ad867a7aaa03351adf0ceb867bfa88c150724693e01af84ec32a2bf0f29403aa0bb97f4c630f860020183061a8094120000000000000000000000000000000000000080801ca088b24eaadbdec2fdf405a4017f5e0d7d8810d4c74a34843539f2be6cc1a989fca079ad8ded0eeefa6732038ceb50e3a987a5ba9c1ea12eb3e6f78651858f1fd2a1c0",
                "transactions": [
                    {
                        "data": "0x",
                        "gasLimit": "0x061a80",
                        "gasPrice": "0x01",
                        "nonce": "0x00",
                        "r": "0x436c8420915217ae867d043179d78b4a8abc7a66f7658df0a06d4aa1f60475f3",
                        "s": "0x17eab00aa21e61a07156519a1639a46bf5fb97e3fb07ea39ca885e9bb9145360",
                        "to": "0x1000000000000000000000000000000000000000",
                        "v": "0x1c",
                        "value": "0x00"
                    },
                    {
                        "data": "0x",
                        "gasLimit": "0x061a80",
                        "gasPrice": "0x01",
                        "nonce": "0x01",
                        "r": "0x211f2484b4229df13ba874c8d0daea7aa63f7cfb58bcaeac30da082ad867a7aa",
                        "s": "0x3351adf0ceb867bfa88c150724693e01af84ec32a2bf0f29403aa0bb97f4c630",
                        "to": "0x1100000000000000000000000000000000000000",
                        "v": "0x1b",
                        "value": "0x00"
                    },
                    {
                        "data": "0x",
                        "gasLimit": "0x061a80",
                        "gasPrice": "0x01",
                        "nonce": "0x02",
                        "r": "0x88b24eaadbdec2fdf405a4017f5e0d7d8810d4c74a34843539f2be6cc1a989fc",
                        "s": "0x79ad8ded0eeefa6732038ceb50e3a987a5ba9c1ea12eb3e6f78651858f1fd2a1",
                        "to": "0x1200000000000000000000000000000000000000",
                        "v": "0x1c",
                        "value": "0x00"
                    }
                ],
                "uncleHeaders": []
            }
        ],
        "genesisBlockHeader": {
            "bloom": "0x00000000000000000000000000000000000000000000000000000000000000000000000000000000000000000000000000000000000000000000000000000000000000000000000000000000000000000000000000000000000000000000000000000000000000000000000000000000000000000000000000000000000000000000000000000000000000000000000000000000000000000000000000000000000000000000000000000000000000000000000000000000000000000000000000000000000000000000000000000000000000000000000000000000000000000000000000000000000000000000000000000000000000000000000000000000",
            "coinbase": "0x8888f1f195afa192cfee860698584c030f4c9db1",
            "difficulty": "0x020000",
            "extraData": "0x42",
            "gasLimit": "0x2625a00",
            "gasUsed": "0x00",
            "hash": "0x661c380494d37f6f2712c03fa8a5b69061ad64529bf2504cae5a20da11d31aa9",
            "mixHash": "0x56e81f171bcc55a6ff8345e692c0f86e5b48e01b996cadc001622fb5e363b421",
            "nonce": "0x0102030405060708",
            "number": "0x00",
            "parentHash": "0x0000000000000000000000000000000000000000000000000000000000000000",
            "receiptTrie": "0x56e81f171bcc55a6ff8345e692c0f86e5b48e01b996cadc001622fb5e363b421",
            "stateRoot": "0x3ceed24928199932eca3fcb8f2eb329d3089b83a785a54e27d168f821a879e6b",
            "timestamp": "0x54c98c81",
            "transactionsTrie": "0x56e81f171bcc55a6ff8345e692c0f86e5b48e01b996cadc001622fb5e363b421",
            "uncleHash": "0x1dcc4de8dec75d7aab85b567b6ccd41ad312451b948a7413f0a142fd40d49347"
        },
        "genesisRLP": "0xf901faf901f5a00000000000000000000000000000000000000000000000000000000000000000a01dcc4de8dec75d7aab85b567b6ccd41ad312451b948a7413f0a142fd40d49347948888f1f195afa192cfee860698584c030f4c9db1a00000000000000000000000000000000000000000000000000000000000000000a056e81f171bcc55a6ff8345e692c0f86e5b48e01b996cadc001622fb5e363b421a00000000000000000000000000000000000000000000000000000000000000000b9010000000000000000000000000000000000000000000000000000000000000000000000000000000000000000000000000000000000000000000000000000000000000000000000000000000000000000000000000000000000000000000000000000000000000000000000000000000000000000000000000000000000000000000000000000000000000000000000000000000000000000000000000000000000000000000000000000000000000000000000000000000000000000000000000000000000000000000000000000000000000000000000000000000000000000000000000000000000000000000000000000000000000000000000000000000000830200008080808454c98c8180a0000000000000000000000000000000000000000000000000000000000000000088010203040506070880c0c0",
        "lastblockhash": "0x0b067b7bb3d3006fba05bd75f16583b8eb0e333287a5a46719457b9985c326bf",
        "network": "Constantinople",
        "postState": {
            "0x0000000000000000000000000000000000000001": {
                "balance": "0x01",
                "code": "",
                "nonce": "0x00",
                "storage": {}
            },
            "0x1000000000000000000000000000000000000000": {
                "balance": "0x03e7",
                "code": "0x6010600f80603260803960806001f56005556005543f6000556005543b6001556020600060006005543c60005160025500fe600380600c6000396000f3fe6001ff",
                "nonce": "0x01",
                "storage": {
                    "0x00": "0x4332e7449d179f5dceba0d414291d661898a5770bf47f83cab418bc9c8d1e304",
                    "0x01": "0x03",
                    "0x02": "0x6001ff0000000000000000000000000000000000000000000000000000000000",
                    "0x05": "0x4e2ac1add07ea5ce68e1e4b0916b4cf22f4d6e84"
                }
            },
            "0x1100000000000000000000000000000000000000": {
                "balance": "0x03e8",
                "code": "0x60006000600060006000734e2ac1add07ea5ce68e1e4b0916b4cf22f4d6e84620186a0f1",
                "nonce": "0x00",
                "storage": {}
            },
            "0x1200000000000000000000000000000000000000": {
                "balance": "0x03e8",
                "code": "0x734e2ac1add07ea5ce68e1e4b0916b4cf22f4d6e846005556005543f6000556005543b6001556020600060006005543c60005160025500",
                "nonce": "0x00",
                "storage": {
                    "0x05": "0x4e2ac1add07ea5ce68e1e4b0916b4cf22f4d6e84"
                }
            },
            "0x8888f1f195afa192cfee860698584c030f4c9db1": {
                "balance": "0x1bc16d674ecb2c08",
                "code": "",
                "nonce": "0x00",
                "storage": {}
            },
            "0xa94f5374fce5edbc8e2a8697c15331677e6ebf0b": {
                "balance": "0x016345785d86d3f8",
                "code": "",
                "nonce": "0x03",
                "storage": {}
            }
        },
        "pre": {
            "0x1000000000000000000000000000000000000000": {
                "balance": "0x03e8",
                "code": "0x6010600f80603260803960806001f56005556005543f6000556005543b6001556020600060006005543c60005160025500fe600380600c6000396000f3fe6001ff",
                "nonce": "0x00",
                "storage": {}
            },
            "0x1100000000000000000000000000000000000000": {
                "balance": "0x03e8",
                "code": "0x60006000600060006000734e2ac1add07ea5ce68e1e4b0916b4cf22f4d6e84620186a0f1",
                "nonce": "0x00",
                "storage": {}
            },
            "0x1200000000000000000000000000000000000000": {
                "balance": "0x03e8",
                "code": "0x734e2ac1add07ea5ce68e1e4b0916b4cf22f4d6e846005556005543f6000556005543b6001556020600060006005543c60005160025500",
                "nonce": "0x00",
                "storage": {}
            },
            "0xa94f5374fce5edbc8e2a8697c15331677e6ebf0b": {
                "balance": "0x016345785d8a0000",
                "code": "",
                "nonce": "0x00",
                "storage": {}
            }
        },
        "sealEngine": "NoProof",
        "chainname": ""
    },
    "extCodeHashOfDeletedAccountDynamic_ConstantinopleFix": {
        "_info": {
            "comment": "5) a blockchain test with block having 2/3 transactions. account a is in the state with the code before the first transaction. 1st transaction (sstore 1 codehash(a)) 2nd transaction suicide a (could be merged with 1st transaction) 3d transaction (sstore 2 codehash(a)) check by expect section sstore value of 1 and 2.",
            "filledwith": "testeth 1.6.0-alpha.0-12+commit.05b55e64",
            "lllcversion": "Version: 0.5.0-develop.2018.11.9+commit.9709dfe0.Linux.g++",
            "source": "src/BlockchainTestsFiller/bcStateTests/extCodeHashOfDeletedAccountDynamicFiller.json",
            "sourceHash": "64dd335d28bf628f82226ec0b033f5aef1153d6e07d04c1e01124e998d793667"
        },
        "blocks": [
            {
                "blockHeader": {
                    "bloom": "0x00000000000000000000000000000000000000000000000000000000000000000000000000000000000000000000000000000000000000000000000000000000000000000000000000000000000000000000000000000000000000000000000000000000000000000000000000000000000000000000000000000000000000000000000000000000000000000000000000000000000000000000000000000000000000000000000000000000000000000000000000000000000000000000000000000000000000000000000000000000000000000000000000000000000000000000000000000000000000000000000000000000000000000000000000000000",
                    "coinbase": "0x8888f1f195afa192cfee860698584c030f4c9db1",
                    "difficulty": "0x020000",
                    "extraData": "",
                    "gasLimit": "0x2625a64",
                    "gasUsed": "0x036448",
                    "hash": "0x71b9f77dfb4d252886683babb8718a469880e1f9a8c26b5e5f4ce1348947bcb2",
                    "mixHash": "0x0000000000000000000000000000000000000000000000000000000000000000",
                    "nonce": "0x0000000000000000",
                    "number": "0x01",
                    "parentHash": "0x661c380494d37f6f2712c03fa8a5b69061ad64529bf2504cae5a20da11d31aa9",
                    "receiptTrie": "0x6770677eefbfb1f8cf1ee75452114625789c746ce74d66a14fbcc2fa0f6574e6",
                    "stateRoot": "0x00dbba16a8f990280279c28910e8d274cf041ce05952abd9dab4e8b76f02cf49",
                    "timestamp": "0x5c477018",
                    "transactionsTrie": "0xe6cfeb14af7b3a91b1446f7e1a38c32998d2225b23b41d0a30d89980bba67e42",
                    "uncleHash": "0x1dcc4de8dec75d7aab85b567b6ccd41ad312451b948a7413f0a142fd40d49347"
                },
                "blocknumber": "",
                "rlp": "0xf90329f901fca0661c380494d37f6f2712c03fa8a5b69061ad64529bf2504cae5a20da11d31aa9a01dcc4de8dec75d7aab85b567b6ccd41ad312451b948a7413f0a142fd40d49347948888f1f195afa192cfee860698584c030f4c9db1a000dbba16a8f990280279c28910e8d274cf041ce05952abd9dab4e8b76f02cf49a0e6cfeb14af7b3a91b1446f7e1a38c32998d2225b23b41d0a30d89980bba67e42a06770677eefbfb1f8cf1ee75452114625789c746ce74d66a14fbcc2fa0f6574e6b901000000000000000000000000000000000000000000000000000000000000000000000000000000000000000000000000000000000000000000000000000000000000000000000000000000000000000000000000000000000000000000000000000000000000000000000000000000000000000000000000000000000000000000000000000000000000000000000000000000000000000000000000000000000000000000000000000000000000000000000000000000000000000000000000000000000000000000000000000000000000000000000000000000000000000000000000000000000000000000000000000000000000000000000000000000000083020000018402625a6483036448845c47701880a0000000000000000000000000000000000000000000000000000000000000000088000000000000000080f90126f860800183061a8094100000000000000000000000000000000000000080801ca0436c8420915217ae867d043179d78b4a8abc7a66f7658df0a06d4aa1f60475f3a017eab00aa21e61a07156519a1639a46bf5fb97e3fb07ea39ca885e9bb9145360f860010183061a8094110000000000000000000000000000000000000080801ba0211f2484b4229df13ba874c8d0daea7aa63f7cfb58bcaeac30da082ad867a7aaa03351adf0ceb867bfa88c150724693e01af84ec32a2bf0f29403aa0bb97f4c630f860020183061a8094120000000000000000000000000000000000000080801ca088b24eaadbdec2fdf405a4017f5e0d7d8810d4c74a34843539f2be6cc1a989fca079ad8ded0eeefa6732038ceb50e3a987a5ba9c1ea12eb3e6f78651858f1fd2a1c0",
                "transactions": [
                    {
                        "data": "0x",
                        "gasLimit": "0x061a80",
                        "gasPrice": "0x01",
                        "nonce": "0x00",
                        "r": "0x436c8420915217ae867d043179d78b4a8abc7a66f7658df0a06d4aa1f60475f3",
                        "s": "0x17eab00aa21e61a07156519a1639a46bf5fb97e3fb07ea39ca885e9bb9145360",
                        "to": "0x1000000000000000000000000000000000000000",
                        "v": "0x1c",
                        "value": "0x00"
                    },
                    {
                        "data": "0x",
                        "gasLimit": "0x061a80",
                        "gasPrice": "0x01",
                        "nonce": "0x01",
                        "r": "0x211f2484b4229df13ba874c8d0daea7aa63f7cfb58bcaeac30da082ad867a7aa",
                        "s": "0x3351adf0ceb867bfa88c150724693e01af84ec32a2bf0f29403aa0bb97f4c630",
                        "to": "0x1100000000000000000000000000000000000000",
                        "v": "0x1b",
                        "value": "0x00"
                    },
                    {
                        "data": "0x",
                        "gasLimit": "0x061a80",
                        "gasPrice": "0x01",
                        "nonce": "0x02",
                        "r": "0x88b24eaadbdec2fdf405a4017f5e0d7d8810d4c74a34843539f2be6cc1a989fc",
                        "s": "0x79ad8ded0eeefa6732038ceb50e3a987a5ba9c1ea12eb3e6f78651858f1fd2a1",
                        "to": "0x1200000000000000000000000000000000000000",
                        "v": "0x1c",
                        "value": "0x00"
                    }
                ],
                "uncleHeaders": []
            }
        ],
        "genesisBlockHeader": {
            "bloom": "0x00000000000000000000000000000000000000000000000000000000000000000000000000000000000000000000000000000000000000000000000000000000000000000000000000000000000000000000000000000000000000000000000000000000000000000000000000000000000000000000000000000000000000000000000000000000000000000000000000000000000000000000000000000000000000000000000000000000000000000000000000000000000000000000000000000000000000000000000000000000000000000000000000000000000000000000000000000000000000000000000000000000000000000000000000000000",
            "coinbase": "0x8888f1f195afa192cfee860698584c030f4c9db1",
            "difficulty": "0x020000",
            "extraData": "0x42",
            "gasLimit": "0x2625a00",
            "gasUsed": "0x00",
            "hash": "0x661c380494d37f6f2712c03fa8a5b69061ad64529bf2504cae5a20da11d31aa9",
            "mixHash": "0x56e81f171bcc55a6ff8345e692c0f86e5b48e01b996cadc001622fb5e363b421",
            "nonce": "0x0102030405060708",
            "number": "0x00",
            "parentHash": "0x0000000000000000000000000000000000000000000000000000000000000000",
            "receiptTrie": "0x56e81f171bcc55a6ff8345e692c0f86e5b48e01b996cadc001622fb5e363b421",
            "stateRoot": "0x3ceed24928199932eca3fcb8f2eb329d3089b83a785a54e27d168f821a879e6b",
            "timestamp": "0x54c98c81",
            "transactionsTrie": "0x56e81f171bcc55a6ff8345e692c0f86e5b48e01b996cadc001622fb5e363b421",
            "uncleHash": "0x1dcc4de8dec75d7aab85b567b6ccd41ad312451b948a7413f0a142fd40d49347"
        },
        "genesisRLP": "0xf901faf901f5a00000000000000000000000000000000000000000000000000000000000000000a01dcc4de8dec75d7aab85b567b6ccd41ad312451b948a7413f0a142fd40d49347948888f1f195afa192cfee860698584c030f4c9db1a00000000000000000000000000000000000000000000000000000000000000000a056e81f171bcc55a6ff8345e692c0f86e5b48e01b996cadc001622fb5e363b421a00000000000000000000000000000000000000000000000000000000000000000b9010000000000000000000000000000000000000000000000000000000000000000000000000000000000000000000000000000000000000000000000000000000000000000000000000000000000000000000000000000000000000000000000000000000000000000000000000000000000000000000000000000000000000000000000000000000000000000000000000000000000000000000000000000000000000000000000000000000000000000000000000000000000000000000000000000000000000000000000000000000000000000000000000000000000000000000000000000000000000000000000000000000000000000000000000000000000830200008080808454c98c8180a0000000000000000000000000000000000000000000000000000000000000000088010203040506070880c0c0",
        "lastblockhash": "0xa981adf34c7edd33a13ef0a2d0cf07f0bdcfb35c9aed286ec8a7e048799d7a62",
        "network": "ConstantinopleFix",
        "postState": {
            "0x0000000000000000000000000000000000000001": {
                "balance": "0x01",
                "code": "",
                "nonce": "0x00",
                "storage": {}
            },
            "0x1000000000000000000000000000000000000000": {
                "balance": "0x03e7",
                "code": "0x6010600f80603260803960806001f56005556005543f6000556005543b6001556020600060006005543c60005160025500fe600380600c6000396000f3fe6001ff",
                "nonce": "0x01",
                "storage": {
                    "0x00": "0x4332e7449d179f5dceba0d414291d661898a5770bf47f83cab418bc9c8d1e304",
                    "0x01": "0x03",
                    "0x02": "0x6001ff0000000000000000000000000000000000000000000000000000000000",
                    "0x05": "0x4e2ac1add07ea5ce68e1e4b0916b4cf22f4d6e84"
                }
            },
            "0x1100000000000000000000000000000000000000": {
                "balance": "0x03e8",
                "code": "0x60006000600060006000734e2ac1add07ea5ce68e1e4b0916b4cf22f4d6e84620186a0f1",
                "nonce": "0x00",
                "storage": {}
            },
            "0x1200000000000000000000000000000000000000": {
                "balance": "0x03e8",
                "code": "0x734e2ac1add07ea5ce68e1e4b0916b4cf22f4d6e846005556005543f6000556005543b6001556020600060006005543c60005160025500",
                "nonce": "0x00",
                "storage": {
                    "0x05": "0x4e2ac1add07ea5ce68e1e4b0916b4cf22f4d6e84"
                }
            },
            "0x8888f1f195afa192cfee860698584c030f4c9db1": {
                "balance": "0x1bc16d674ecb6448",
                "code": "",
                "nonce": "0x00",
                "storage": {}
            },
            "0xa94f5374fce5edbc8e2a8697c15331677e6ebf0b": {
                "balance": "0x016345785d869bb8",
                "code": "",
                "nonce": "0x03",
                "storage": {}
            }
        },
        "pre": {
            "0x1000000000000000000000000000000000000000": {
                "balance": "0x03e8",
                "code": "0x6010600f80603260803960806001f56005556005543f6000556005543b6001556020600060006005543c60005160025500fe600380600c6000396000f3fe6001ff",
                "nonce": "0x00",
                "storage": {}
            },
            "0x1100000000000000000000000000000000000000": {
                "balance": "0x03e8",
                "code": "0x60006000600060006000734e2ac1add07ea5ce68e1e4b0916b4cf22f4d6e84620186a0f1",
                "nonce": "0x00",
                "storage": {}
            },
            "0x1200000000000000000000000000000000000000": {
                "balance": "0x03e8",
                "code": "0x734e2ac1add07ea5ce68e1e4b0916b4cf22f4d6e846005556005543f6000556005543b6001556020600060006005543c60005160025500",
                "nonce": "0x00",
                "storage": {}
            },
            "0xa94f5374fce5edbc8e2a8697c15331677e6ebf0b": {
                "balance": "0x016345785d8a0000",
                "code": "",
                "nonce": "0x00",
                "storage": {}
            }
        },
        "sealEngine": "NoProof",
        "chainname": ""
    }
}