{
    "uncleHeaderAtBlock2Byzantium_Byzantium": {
        "_info": {
            "comment": "",
            "filledwith": "testeth 1.6.0-alpha.0-12+commit.05b55e64",
            "lllcversion": "Version: 0.5.0-develop.2018.11.9+commit.9709dfe0.Linux.g++",
            "source": "src/BlockchainTestsFiller/bcUncleTest/uncleHeaderAtBlock2ByzantiumFiller.json",
            "sourceHash": "2a612993a4fd1871eef8785ce2d15991c6536230d2458d7ccf8724c47c8f5113"
        },
        "blocks": [
            {
                "blockHeader": {
                    "bloom": "0x00000000000000000000000000000000000000000000000000000000000000000000000000000000000000000000000000000000000000000000000000000000000000000000000000000000000000000000000000000000000000000000000000000000000000000000000000000000000000000000000000000000000000000000000000000000000000000000000000000000000000000000000000000000000000000000000000000000000000000000000000000000000000000000000000000000000000000000000000000000000000000000000000000000000000000000000000000000000000000000000000000000000000000000000000000000",
                    "coinbase": "0x8888f1f195afa192cfee860698584c030f4c9db1",
                    "difficulty": "0x020000",
                    "extraData": "",
                    "gasLimit": "0x2625a64",
                    "gasUsed": "0x5208",
                    "hash": "0x8647853cfa96233db3d44022e7730b878ec375219f3bf4c7d84965b7f8d66642",
                    "mixHash": "0x0000000000000000000000000000000000000000000000000000000000000000",
                    "nonce": "0x0000000000000000",
                    "number": "0x01",
                    "parentHash": "0x65212149e697edebc64485d9a88f34905aa896ea3a826c0f80c4e329ae8a1a77",
                    "receiptTrie": "0x056b23fbba480696b65fe5a59b8f2148a1299103c4f57df839233af2cf4ca2d2",
                    "stateRoot": "0xdaa1ca97a0f183a75c634dabfcf3e3710743668e840c520f6444d8fb44e69ec0",
                    "timestamp": "0x5c47771a",
                    "transactionsTrie": "0x5c9151c2413d1cd25c51ffb4ac38948acc1359bf08c6b49f283660e9bcf0f516",
                    "uncleHash": "0x1dcc4de8dec75d7aab85b567b6ccd41ad312451b948a7413f0a142fd40d49347"
                },
                "blocknumber": "",
                "rlp": "0xf90263f901fba065212149e697edebc64485d9a88f34905aa896ea3a826c0f80c4e329ae8a1a77a01dcc4de8dec75d7aab85b567b6ccd41ad312451b948a7413f0a142fd40d49347948888f1f195afa192cfee860698584c030f4c9db1a0daa1ca97a0f183a75c634dabfcf3e3710743668e840c520f6444d8fb44e69ec0a05c9151c2413d1cd25c51ffb4ac38948acc1359bf08c6b49f283660e9bcf0f516a0056b23fbba480696b65fe5a59b8f2148a1299103c4f57df839233af2cf4ca2d2b901000000000000000000000000000000000000000000000000000000000000000000000000000000000000000000000000000000000000000000000000000000000000000000000000000000000000000000000000000000000000000000000000000000000000000000000000000000000000000000000000000000000000000000000000000000000000000000000000000000000000000000000000000000000000000000000000000000000000000000000000000000000000000000000000000000000000000000000000000000000000000000000000000000000000000000000000000000000000000000000000000000000000000000000000000000000083020000018402625a64825208845c47771a80a0000000000000000000000000000000000000000000000000000000000000000088000000000000000080f862f86080018304cb2f94095e7baea6a6c7c4c2dfeb977efac326af552d870a801ba077c7cd36820c71821c1aed59de46e70e701c4a8dd89c9ba508ab722210f60da8a03f29825d40c7c3f7bff3ca69267e0f3fb74b2d18b8c2c4e3c135b5d3b06e288dc0",
                "transactions": [
                    {
                        "data": "0x",
                        "gasLimit": "0x04cb2f",
                        "gasPrice": "0x01",
                        "nonce": "0x00",
                        "r": "0x77c7cd36820c71821c1aed59de46e70e701c4a8dd89c9ba508ab722210f60da8",
                        "s": "0x3f29825d40c7c3f7bff3ca69267e0f3fb74b2d18b8c2c4e3c135b5d3b06e288d",
                        "to": "0x095e7baea6a6c7c4c2dfeb977efac326af552d87",
                        "v": "0x1b",
                        "value": "0x0a"
                    }
                ],
                "uncleHeaders": []
            },
            {
                "blockHeader": {
                    "bloom": "0x00000000000000000000000000000000000000000000000000000000000000000000000000000000000000000000000000000000000000000000000000000000000000000000000000000000000000000000000000000000000000000000000000000000000000000000000000000000000000000000000000000000000000000000000000000000000000000000000000000000000000000000000000000000000000000000000000000000000000000000000000000000000000000000000000000000000000000000000000000000000000000000000000000000000000000000000000000000000000000000000000000000000000000000000000000000",
                    "coinbase": "0x8888f1f195afa192cfee860698584c030f4c9db1",
                    "difficulty": "0x20000",
                    "extraData": "",
                    "gasLimit": "0x2625a64",
                    "gasUsed": "0x5208",
                    "hash": "0xc3443162933bf9449780aa91c5dd6b8304567d02d0f1927a3b49b2a44690b8cd",
                    "mixHash": "0x0000000000000000000000000000000000000000000000000000000000000000",
                    "nonce": "0x0",
                    "number": "0x1",
                    "parentHash": "0x65212149e697edebc64485d9a88f34905aa896ea3a826c0f80c4e329ae8a1a77",
                    "receiptTrie": "0x056b23fbba480696b65fe5a59b8f2148a1299103c4f57df839233af2cf4ca2d2",
                    "stateRoot": "0xe1aff725a27c18dbb8d70c2d0e049511dabba2f595c20f7c67ad4026d6275f88",
                    "timestamp": "0x5c47771c",
                    "transactionsTrie": "0xc673e076264c4669a5c2e479f1757b78e42511efe33b5fd2c0a23b929c7f87f5",
                    "uncleHash": "0x6117ed82a9ca809c8f60711c41fcbab768c5c6e4153b0cae6ac39bcd7e0781f4"
                },
                "blocknumber": "",
                "rlp": "0xf90262f901fba065212149e697edebc64485d9a88f34905aa896ea3a826c0f80c4e329ae8a1a77a01dcc4de8dec75d7aab85b567b6ccd41ad312451b948a7413f0a142fd40d49347948888f1f195afa192cfee860698584c030f4c9db1a0e1aff725a27c18dbb8d70c2d0e049511dabba2f595c20f7c67ad4026d6275f88a0c673e076264c4669a5c2e479f1757b78e42511efe33b5fd2c0a23b929c7f87f5a0056b23fbba480696b65fe5a59b8f2148a1299103c4f57df839233af2cf4ca2d2b901000000000000000000000000000000000000000000000000000000000000000000000000000000000000000000000000000000000000000000000000000000000000000000000000000000000000000000000000000000000000000000000000000000000000000000000000000000000000000000000000000000000000000000000000000000000000000000000000000000000000000000000000000000000000000000000000000000000000000000000000000000000000000000000000000000000000000000000000000000000000000000000000000000000000000000000000000000000000000000000000000000000000000000000000000000000083020000018402625a64825208845c47771c80a0000000000000000000000000000000000000000000000000000000000000000088000000000000000080f861f85f01018304cb2f94095e7baea6a6c7c4c2dfeb977efac326af552d870a801ba033c86e64d708c97c6b135cadff79dbf45985aa0b53694789e90d15f756765f239f1d0f8caa2a16405148c9d85581be5814960010f3cba938b5501590cea1f7cfc0",
                "transactions": [
                    {
                        "data": "0x",
                        "gasLimit": "0x04cb2f",
                        "gasPrice": "0x01",
                        "nonce": "0x01",
                        "r": "0x33c86e64d708c97c6b135cadff79dbf45985aa0b53694789e90d15f756765f23",
                        "s": "0x1d0f8caa2a16405148c9d85581be5814960010f3cba938b5501590cea1f7cf",
                        "to": "0x095e7baea6a6c7c4c2dfeb977efac326af552d87",
                        "v": "0x1b",
                        "value": "0x0a"
                    }
                ],
                "uncleHeaders": [
                    {
                        "bloom": "0x00000000000000000000000000000000000000000000000000000000000000000000000000000000000000000000000000000000000000000000000000000000000000000000000000000000000000000000000000000000000000000000000000000000000000000000000000000000000000000000000000000000000000000000000000000000000000000000000000000000000000000000000000000000000000000000000000000000000000000000000000000000000000000000000000000000000000000000000000000000000000000000000000000000000000000000000000000000000000000000000000000000000000000000000000000000",
                        "coinbase": "0x0000000000000000000000000000000000000000",
                        "difficulty": "0x020040",
                        "extraData": "",
                        "gasLimit": "0x2fefba",
                        "gasUsed": "0x00",
                        "hash": "0x4e2c3420a4df6801390086ce9a7865d6955f3e8b0ec7d477634f3f5a806264fd",
                        "mixHash": "0x0000000000000000000000000000000000000000000000000000000000000000",
                        "nonce": "0x0000000000000000",
                        "number": "0x01",
                        "parentHash": "0x5a39ed1020c04d4d84539975b893a4e7c53eab6c2965db8bc3468093a31bc5ae",
                        "receiptTrie": "0x56e81f171bcc55a6ff8345e692c0f86e5b48e01b996cadc001622fb5e363b421",
                        "stateRoot": "0x7dba07d6b448a186e9612e5f737d1c909dce473e53199901a302c00646d523c1",
                        "timestamp": "0x54c98c82",
                        "transactionsTrie": "0x56e81f171bcc55a6ff8345e692c0f86e5b48e01b996cadc001622fb5e363b421",
                        "uncleHash": "0x1dcc4de8dec75d7aab85b567b6ccd41ad312451b948a7413f0a142fd40d49347"
                    }
                ]
            }
        ],
        "genesisBlockHeader": {
            "bloom": "0x00000000000000000000000000000000000000000000000000000000000000000000000000000000000000000000000000000000000000000000000000000000000000000000000000000000000000000000000000000000000000000000000000000000000000000000000000000000000000000000000000000000000000000000000000000000000000000000000000000000000000000000000000000000000000000000000000000000000000000000000000000000000000000000000000000000000000000000000000000000000000000000000000000000000000000000000000000000000000000000000000000000000000000000000000000000",
            "coinbase": "0x8888f1f195afa192cfee860698584c030f4c9db1",
            "difficulty": "0x020000",
            "extraData": "0x42",
            "gasLimit": "0x2625a00",
            "gasUsed": "0x00",
            "hash": "0x65212149e697edebc64485d9a88f34905aa896ea3a826c0f80c4e329ae8a1a77",
            "mixHash": "0x56e81f171bcc55a6ff8345e692c0f86e5b48e01b996cadc001622fb5e363b421",
            "nonce": "0x0102030405060708",
            "number": "0x00",
            "parentHash": "0x0000000000000000000000000000000000000000000000000000000000000000",
            "receiptTrie": "0x56e81f171bcc55a6ff8345e692c0f86e5b48e01b996cadc001622fb5e363b421",
            "stateRoot": "0xf9e08a15b29d855a18627005f2effda79a7a23573276581810b8369805aad6fa",
            "timestamp": "0x54c98c81",
            "transactionsTrie": "0x56e81f171bcc55a6ff8345e692c0f86e5b48e01b996cadc001622fb5e363b421",
            "uncleHash": "0x1dcc4de8dec75d7aab85b567b6ccd41ad312451b948a7413f0a142fd40d49347"
        },
        "genesisRLP": "0xf901faf901f5a00000000000000000000000000000000000000000000000000000000000000000a01dcc4de8dec75d7aab85b567b6ccd41ad312451b948a7413f0a142fd40d49347948888f1f195afa192cfee860698584c030f4c9db1a00000000000000000000000000000000000000000000000000000000000000000a056e81f171bcc55a6ff8345e692c0f86e5b48e01b996cadc001622fb5e363b421a00000000000000000000000000000000000000000000000000000000000000000b9010000000000000000000000000000000000000000000000000000000000000000000000000000000000000000000000000000000000000000000000000000000000000000000000000000000000000000000000000000000000000000000000000000000000000000000000000000000000000000000000000000000000000000000000000000000000000000000000000000000000000000000000000000000000000000000000000000000000000000000000000000000000000000000000000000000000000000000000000000000000000000000000000000000000000000000000000000000000000000000000000000000000000000000000000000000000830200008080808454c98c8180a0000000000000000000000000000000000000000000000000000000000000000088010203040506070880c0c0",
        "lastblockhash": "0xc3443162933bf9449780aa91c5dd6b8304567d02d0f1927a3b49b2a44690b8cd",
        "network": "Byzantium",
        "postState": {
            "0x0000000000000000000000000000000000000000": {
                "balance": "0x246ddf9797668000",
                "code": "",
                "nonce": "0x00",
                "storage": {}
            },
            "0x095e7baea6a6c7c4c2dfeb977efac326af552d87": {
                "balance": "0x14",
                "code": "",
                "nonce": "0x00",
                "storage": {}
            },
            "0x8888f1f195afa192cfee860698584c030f4c9db1": {
                "balance": "0x54915956c40a0410",
                "code": "",
                "nonce": "0x00",
                "storage": {}
            },
            "0xa94f5374fce5edbc8e2a8697c15331677e6ebf0b": {
                "balance": "0x09184e71fbdc",
                "code": "",
                "nonce": "0x02",
                "storage": {}
            }
        },
        "pre": {
            "0xa94f5374fce5edbc8e2a8697c15331677e6ebf0b": {
                "balance": "0x09184e72a000",
                "code": "",
                "nonce": "0x00",
                "storage": {}
            }
        },
        "sealEngine": "NoProof",
        "chainname": ""
    }
}