{
    "UnclePopulation": {
        "_info": {
            "comment": "",
            "filledwith": "testeth 1.5.0.dev2-65+commit.3be27deb",
            "lllcversion": "Version: 0.4.26-develop.2018.9.19+commit.785cbf40.Linux.g++",
            "source": "src/BlockchainTestsFiller/TransitionTests/bcFrontierToHomestead/UnclePopulationFiller.json",
            "sourceHash": "1234792b282952e9d6ee66f20215727ff48f85b858e32725f16632bc0dfc8fa2"
        },
        "blocks": [
            {
                "blockHeader": {
                    "bloom": "0x00000000000000000000000000000000000000000000000000000000000000000000000000000000000000000000000000000000000000000000000000000000000000000000000000000000000000000000000000000000000000000000000000000000000000000000000000000000000000000000000000000000000000000000000000000000000000000000000000000000000000000000000000000000000000000000000000000000000000000000000000000000000000000000000000000000000000000000000000000000000000000000000000000000000000000000000000000000000000000000000000000000000000000000000000000000",
                    "coinbase": "0x8888f1f195afa192cfee860698584c030f4c9db1",
                    "difficulty": "0x020040",
                    "extraData": "",
                    "gasLimit": "0x2625a64",
                    "gasUsed": "0x00",
                    "hash": "0x1781128faf7b31d32659db5b4fce5848cb9a4b8cc6d9c9b59926bb069012d713",
                    "mixHash": "0xb8ffa5e6aa1d74668c201324401d5aa0b5bfa3bfc2a240ca7e635893eb3270b8",
                    "nonce": "0x6a8fba19ffd51f4f",
                    "number": "0x01",
                    "parentHash": "0x965b4d08c1502c3528a1749be5fb2623652d5a87a88768daca6566228849e0aa",
                    "receiptTrie": "0x56e81f171bcc55a6ff8345e692c0f86e5b48e01b996cadc001622fb5e363b421",
                    "stateRoot": "0x8503769bb14067be7c5e438c353094e5a9a6c72f375fad4a76878a8882ceb496",
                    "timestamp": "0x54c98c82",
                    "transactionsTrie": "0x56e81f171bcc55a6ff8345e692c0f86e5b48e01b996cadc001622fb5e363b421",
                    "uncleHash": "0x1dcc4de8dec75d7aab85b567b6ccd41ad312451b948a7413f0a142fd40d49347"
                },
                "blocknumber": "1",
                "rlp": "0xf901fef901f9a0965b4d08c1502c3528a1749be5fb2623652d5a87a88768daca6566228849e0aaa01dcc4de8dec75d7aab85b567b6ccd41ad312451b948a7413f0a142fd40d49347948888f1f195afa192cfee860698584c030f4c9db1a08503769bb14067be7c5e438c353094e5a9a6c72f375fad4a76878a8882ceb496a056e81f171bcc55a6ff8345e692c0f86e5b48e01b996cadc001622fb5e363b421a056e81f171bcc55a6ff8345e692c0f86e5b48e01b996cadc001622fb5e363b421b901000000000000000000000000000000000000000000000000000000000000000000000000000000000000000000000000000000000000000000000000000000000000000000000000000000000000000000000000000000000000000000000000000000000000000000000000000000000000000000000000000000000000000000000000000000000000000000000000000000000000000000000000000000000000000000000000000000000000000000000000000000000000000000000000000000000000000000000000000000000000000000000000000000000000000000000000000000000000000000000000000000000000000000000000000000000083020040018402625a64808454c98c8280a0b8ffa5e6aa1d74668c201324401d5aa0b5bfa3bfc2a240ca7e635893eb3270b8886a8fba19ffd51f4f80c0c0",
                "transactions": [],
                "uncleHeaders": []
            },
            {
                "blockHeader": {
                    "bloom": "0x00000000000000000000000000000000000000000000000000000000000000000000000000000000000000000000000000000000000000000000000000000000000000000000000000000000000000000000000000000000000000000000000000000000000000000000000000000000000000000000000000000000000000000000000000000000000000000000000000000000000000000000000000000000000000000000000000000000000000000000000000000000000000000000000000000000000000000000000000000000000000000000000000000000000000000000000000000000000000000000000000000000000000000000000000000000",
                    "coinbase": "0x8888f1f195afa192cfee860698584c030f4c9db1",
                    "difficulty": "0x020080",
                    "extraData": "",
                    "gasLimit": "0x2625a64",
                    "gasUsed": "0x00",
                    "hash": "0x6a0cc2febd66aca40368c8c954654df1e119ec7b29dde6c4aa43c899dc5b1f11",
                    "mixHash": "0x07a4713d7e002e53be51daad8b1f284a671a89dc41044349baa7a39a410941f1",
                    "nonce": "0x7c7d5741ba5b6768",
                    "number": "0x02",
                    "parentHash": "0x965b4d08c1502c3528a1749be5fb2623652d5a87a88768daca6566228849e0aa",
                    "receiptTrie": "0x56e81f171bcc55a6ff8345e692c0f86e5b48e01b996cadc001622fb5e363b421",
                    "stateRoot": "0x326587c5310ecdbd0c8d36c471eef6595a6046ad46ee90bf0db88e691223ee38",
                    "timestamp": "0x54c98c83",
                    "transactionsTrie": "0x56e81f171bcc55a6ff8345e692c0f86e5b48e01b996cadc001622fb5e363b421",
                    "uncleHash": "0x1dcc4de8dec75d7aab85b567b6ccd41ad312451b948a7413f0a142fd40d49347"
                },
                "blocknumber": "2",
                "rlp": "0xf901fef901f9a0965b4d08c1502c3528a1749be5fb2623652d5a87a88768daca6566228849e0aaa01dcc4de8dec75d7aab85b567b6ccd41ad312451b948a7413f0a142fd40d49347948888f1f195afa192cfee860698584c030f4c9db1a0326587c5310ecdbd0c8d36c471eef6595a6046ad46ee90bf0db88e691223ee38a056e81f171bcc55a6ff8345e692c0f86e5b48e01b996cadc001622fb5e363b421a056e81f171bcc55a6ff8345e692c0f86e5b48e01b996cadc001622fb5e363b421b901000000000000000000000000000000000000000000000000000000000000000000000000000000000000000000000000000000000000000000000000000000000000000000000000000000000000000000000000000000000000000000000000000000000000000000000000000000000000000000000000000000000000000000000000000000000000000000000000000000000000000000000000000000000000000000000000000000000000000000000000000000000000000000000000000000000000000000000000000000000000000000000000000000000000000000000000000000000000000000000000000000000000000000000000000000000083020080028402625a64808454c98c8380a007a4713d7e002e53be51daad8b1f284a671a89dc41044349baa7a39a410941f1887c7d5741ba5b676880c0c0",
                "transactions": [],
                "uncleHeaders": []
            },
            {
                "blockHeader": {
                    "bloom": "0x00000000000000000000000000000000000000000000000000000000000000000000000000000000000000000000000000000000000000000000000000000000000000000000000000000000000000000000000000000000000000000000000000000000000000000000000000000000000000000000000000000000000000000000000000000000000000000000000000000000000000000000000000000000000000000000000000000000000000000000000000000000000000000000000000000000000000000000000000000000000000000000000000000000000000000000000000000000000000000000000000000000000000000000000000000000",
                    "coinbase": "0x8888f1f195afa192cfee860698584c030f4c9db1",
                    "difficulty": "0x0200c0",
                    "extraData": "",
                    "gasLimit": "0x2625a64",
                    "gasUsed": "0x00",
                    "hash": "0x5186e0254f7d6b0b3205d62a80f49248184ce941e60f73bb2c4934ecd9d772f3",
                    "mixHash": "0x3f4a4fe5624ab5e47fe8e990d2b33771350f3bb89df0ac4a29dfc7f074df2e6d",
                    "nonce": "0xc1727e5b42a8293f",
                    "number": "0x03",
                    "parentHash": "0x965b4d08c1502c3528a1749be5fb2623652d5a87a88768daca6566228849e0aa",
                    "receiptTrie": "0x56e81f171bcc55a6ff8345e692c0f86e5b48e01b996cadc001622fb5e363b421",
                    "stateRoot": "0xc662553363b8624b50cd8f83a2a28ec38b6cf0c029db61cb21e06d7df87fb256",
                    "timestamp": "0x54c98c84",
                    "transactionsTrie": "0x56e81f171bcc55a6ff8345e692c0f86e5b48e01b996cadc001622fb5e363b421",
                    "uncleHash": "0x1dcc4de8dec75d7aab85b567b6ccd41ad312451b948a7413f0a142fd40d49347"
                },
                "blocknumber": "3",
                "rlp": "0xf901fef901f9a0965b4d08c1502c3528a1749be5fb2623652d5a87a88768daca6566228849e0aaa01dcc4de8dec75d7aab85b567b6ccd41ad312451b948a7413f0a142fd40d49347948888f1f195afa192cfee860698584c030f4c9db1a0c662553363b8624b50cd8f83a2a28ec38b6cf0c029db61cb21e06d7df87fb256a056e81f171bcc55a6ff8345e692c0f86e5b48e01b996cadc001622fb5e363b421a056e81f171bcc55a6ff8345e692c0f86e5b48e01b996cadc001622fb5e363b421b9010000000000000000000000000000000000000000000000000000000000000000000000000000000000000000000000000000000000000000000000000000000000000000000000000000000000000000000000000000000000000000000000000000000000000000000000000000000000000000000000000000000000000000000000000000000000000000000000000000000000000000000000000000000000000000000000000000000000000000000000000000000000000000000000000000000000000000000000000000000000000000000000000000000000000000000000000000000000000000000000000000000000000000000000000000000000830200c0038402625a64808454c98c8480a03f4a4fe5624ab5e47fe8e990d2b33771350f3bb89df0ac4a29dfc7f074df2e6d88c1727e5b42a8293f80c0c0",
                "transactions": [],
                "uncleHeaders": []
            },
            {
                "blockHeader": {
                    "bloom": "0x00000000000000000000000000000000000000000000000000000000000000000000000000000000000000000000000000000000000000000000000000000000000000000000000000000000000000000000000000000000000000000000000000000000000000000000000000000000000000000000000000000000000000000000000000000000000000000000000000000000000000000000000000000000000000000000000000000000000000000000000000000000000000000000000000000000000000000000000000000000000000000000000000000000000000000000000000000000000000000000000000000000000000000000000000000000",
                    "coinbase": "0x8888f1f195afa192cfee860698584c030f4c9db1",
                    "difficulty": "0x020100",
                    "extraData": "",
                    "gasLimit": "0x2625a64",
                    "gasUsed": "0x00",
                    "hash": "0x969d6af2634cbdd3b891582df766b44f1e002101b4ce7878359d729db7c2000b",
                    "mixHash": "0x4dba2d373a00ae02a7f979e2fe74a6f38faac5948df22f1c74e1c68c0408bc00",
                    "nonce": "0x6f340354b3ff3acb",
                    "number": "0x04",
                    "parentHash": "0x965b4d08c1502c3528a1749be5fb2623652d5a87a88768daca6566228849e0aa",
                    "receiptTrie": "0x56e81f171bcc55a6ff8345e692c0f86e5b48e01b996cadc001622fb5e363b421",
                    "stateRoot": "0x6b6c82551219d30f4168674006e3e1ece38eb055d9575f63e6dcce05f4a610af",
                    "timestamp": "0x54c98c85",
                    "transactionsTrie": "0x56e81f171bcc55a6ff8345e692c0f86e5b48e01b996cadc001622fb5e363b421",
                    "uncleHash": "0x1dcc4de8dec75d7aab85b567b6ccd41ad312451b948a7413f0a142fd40d49347"
                },
                "blocknumber": "4",
                "rlp": "0xf901fef901f9a0965b4d08c1502c3528a1749be5fb2623652d5a87a88768daca6566228849e0aaa01dcc4de8dec75d7aab85b567b6ccd41ad312451b948a7413f0a142fd40d49347948888f1f195afa192cfee860698584c030f4c9db1a06b6c82551219d30f4168674006e3e1ece38eb055d9575f63e6dcce05f4a610afa056e81f171bcc55a6ff8345e692c0f86e5b48e01b996cadc001622fb5e363b421a056e81f171bcc55a6ff8345e692c0f86e5b48e01b996cadc001622fb5e363b421b901000000000000000000000000000000000000000000000000000000000000000000000000000000000000000000000000000000000000000000000000000000000000000000000000000000000000000000000000000000000000000000000000000000000000000000000000000000000000000000000000000000000000000000000000000000000000000000000000000000000000000000000000000000000000000000000000000000000000000000000000000000000000000000000000000000000000000000000000000000000000000000000000000000000000000000000000000000000000000000000000000000000000000000000000000000000083020100048402625a64808454c98c8580a04dba2d373a00ae02a7f979e2fe74a6f38faac5948df22f1c74e1c68c0408bc00886f340354b3ff3acb80c0c0",
                "transactions": [],
                "uncleHeaders": []
            },
            {
                "blockHeader": {
                    "bloom": "0x00000000000000000000000000000000000000000000000000000000000000000000000000000000000000000000000000000000000000000000000000000000000000000000000000000000000000000000000000000000000000000000000000000000000000000000000000000000000000000000000000000000000000000000000000000000000000000000000000000000000000000000000000000000000000000000000000000000000000000000000000000000000000000000000000000000000000000000000000000000000000000000000000000000000000000000000000000000000000000000000000000000000000000000000000000000",
                    "coinbase": "0x8888f1f195afa192cfee860698584c030f4c9db1",
                    "difficulty": "0x020140",
                    "extraData": "",
                    "gasLimit": "0x2625a64",
                    "gasUsed": "0x00",
                    "hash": "0x5a09929c4f59c98919b8f240cad5bf15364dea5cbbd2d1f1d9c0c11451985ffc",
                    "mixHash": "0xa44072e3311f8881a4b9897c06e3e0a443fcb86e26532e05c1316a4e562d90ba",
                    "nonce": "0xe23d8748bd0a0a52",
                    "number": "0x05",
                    "parentHash": "0x965b4d08c1502c3528a1749be5fb2623652d5a87a88768daca6566228849e0aa",
                    "receiptTrie": "0x56e81f171bcc55a6ff8345e692c0f86e5b48e01b996cadc001622fb5e363b421",
                    "stateRoot": "0xd7fbf4bf063a6e4a506777007a071e16d4dc6cc18f9ced7b29261942b35409a3",
                    "timestamp": "0x54c98c86",
                    "transactionsTrie": "0x56e81f171bcc55a6ff8345e692c0f86e5b48e01b996cadc001622fb5e363b421",
                    "uncleHash": "0x1dcc4de8dec75d7aab85b567b6ccd41ad312451b948a7413f0a142fd40d49347"
                },
                "blocknumber": "5",
                "rlp": "0xf901fef901f9a0965b4d08c1502c3528a1749be5fb2623652d5a87a88768daca6566228849e0aaa01dcc4de8dec75d7aab85b567b6ccd41ad312451b948a7413f0a142fd40d49347948888f1f195afa192cfee860698584c030f4c9db1a0d7fbf4bf063a6e4a506777007a071e16d4dc6cc18f9ced7b29261942b35409a3a056e81f171bcc55a6ff8345e692c0f86e5b48e01b996cadc001622fb5e363b421a056e81f171bcc55a6ff8345e692c0f86e5b48e01b996cadc001622fb5e363b421b901000000000000000000000000000000000000000000000000000000000000000000000000000000000000000000000000000000000000000000000000000000000000000000000000000000000000000000000000000000000000000000000000000000000000000000000000000000000000000000000000000000000000000000000000000000000000000000000000000000000000000000000000000000000000000000000000000000000000000000000000000000000000000000000000000000000000000000000000000000000000000000000000000000000000000000000000000000000000000000000000000000000000000000000000000000000083020140058402625a64808454c98c8680a0a44072e3311f8881a4b9897c06e3e0a443fcb86e26532e05c1316a4e562d90ba88e23d8748bd0a0a5280c0c0",
                "transactions": [],
                "uncleHeaders": []
            },
            {
                "blockHeader": {
                    "bloom": "0x00000000000000000000000000000000000000000000000000000000000000000000000000000000000000000000000000000000000000000000000000000000000000000000000000000000000000000000000000000000000000000000000000000000000000000000000000000000000000000000000000000000000000000000000000000000000000000000000000000000000000000000000000000000000000000000000000000000000000000000000000000000000000000000000000000000000000000000000000000000000000000000000000000000000000000000000000000000000000000000000000000000000000000000000000000000",
                    "coinbase": "0x8888f1f195afa192cfee860698584c030f4c9db1",
                    "difficulty": "0x020180",
                    "extraData": "",
                    "gasLimit": "0x2625a64",
                    "gasUsed": "0x5208",
                    "hash": "0x52198e491f4bcd6c7ee71060bcd4ac3d737fb4b354f0f57eb963cee16fa50103",
                    "mixHash": "0xb86ea04fc0cb2ae1269b64c6c2fe894277f2624025ed900f5d66de280761ebe9",
                    "nonce": "0x8c7dfff591f97d1b",
                    "number": "0x06",
                    "parentHash": "0x965b4d08c1502c3528a1749be5fb2623652d5a87a88768daca6566228849e0aa",
                    "receiptTrie": "0x7191f80a9a89b68283ba575e536f2825389c41029085cb461e161fc01df6652b",
                    "stateRoot": "0x2b30a2acb6b6ed4adb49ef749baa17673bbdc8c1b9964607c5a2ccf8ed81aafc",
                    "timestamp": "0x54c98c87",
                    "transactionsTrie": "0xb049e948f958fd4f29ff8d237dcf93ad958042c49b5515e2330f1652ae5cc7ec",
                    "uncleHash": "0x8d8b227f565b316332c74beb7e6be07cc064899a4f7e4da937d799c681a3ce1c"
                },
                "blocknumber": "6",
                "rlp": "0xf90263f901fba0965b4d08c1502c3528a1749be5fb2623652d5a87a88768daca6566228849e0aaa01dcc4de8dec75d7aab85b567b6ccd41ad312451b948a7413f0a142fd40d49347948888f1f195afa192cfee860698584c030f4c9db1a02b30a2acb6b6ed4adb49ef749baa17673bbdc8c1b9964607c5a2ccf8ed81aafca0b049e948f958fd4f29ff8d237dcf93ad958042c49b5515e2330f1652ae5cc7eca07191f80a9a89b68283ba575e536f2825389c41029085cb461e161fc01df6652bb901000000000000000000000000000000000000000000000000000000000000000000000000000000000000000000000000000000000000000000000000000000000000000000000000000000000000000000000000000000000000000000000000000000000000000000000000000000000000000000000000000000000000000000000000000000000000000000000000000000000000000000000000000000000000000000000000000000000000000000000000000000000000000000000000000000000000000000000000000000000000000000000000000000000000000000000000000000000000000000000000000000000000000000000000000000000083020180068402625a648252088454c98c8780a0b86ea04fc0cb2ae1269b64c6c2fe894277f2624025ed900f5d66de280761ebe9888c7dfff591f97d1b80f862f86080018301fbd094b94f5374fce5edbc8e2a8697c15331677e6ebf0b0a801ba06738f4afb7c14330fbdd9d3c2ac20b9e12755bbf873edd70962820b3041d50c7a02094fd79dba23f99f79cadcda90aa4545c380a6363f6462d842bd77a921a1d58c0",
                "transactions": [
                    {
                        "data": "0x",
                        "gasLimit": "0x01fbd0",
                        "gasPrice": "0x01",
                        "nonce": "0x00",
                        "r": "0x6738f4afb7c14330fbdd9d3c2ac20b9e12755bbf873edd70962820b3041d50c7",
                        "s": "0x2094fd79dba23f99f79cadcda90aa4545c380a6363f6462d842bd77a921a1d58",
                        "to": "0xb94f5374fce5edbc8e2a8697c15331677e6ebf0b",
                        "v": "0x1b",
                        "value": "0x0a"
                    }
                ],
                "uncleHeaders": [
                    {
                        "bloom": "0x00000000000000000000000000000000000000000000000000000000000000000000000000000000000000000000000000000000000000000000000000000000000000000000000000000000000000000000000000000000000000000000000000000000000000000000000000000000000000000000000000000000000000000000000000000000000000000000000000000000000000000000000000000000000000000000000000000000000000000000000000000000000000000000000000000000000000000000000000000000000000000000000000000000000000000000000000000000000000000000000000000000000000000000000000000000",
                        "coinbase": "0x0000000000000000000000000000000000000000",
                        "difficulty": "0x020140",
                        "extraData": "",
                        "gasLimit": "0x2fefba",
                        "gasUsed": "0x00",
                        "hash": "0xef1c70f02e0ad4edccfeb37018181b12d28c9a2f7f7f146a23beb82346cb4f62",
                        "mixHash": "0x5ba347028c4604f60034308ece298169c85be79a6b86934e98d2ab6144764d2e",
                        "nonce": "0x2d3a2f8f012ba57d",
                        "number": "0x05",
                        "parentHash": "0x969d6af2634cbdd3b891582df766b44f1e002101b4ce7878359d729db7c2000b",
                        "receiptTrie": "0x56e81f171bcc55a6ff8345e692c0f86e5b48e01b996cadc001622fb5e363b421",
                        "stateRoot": "0x6b6c82551219d30f4168674006e3e1ece38eb055d9575f63e6dcce05f4a610af",
                        "timestamp": "0x54c98c86",
                        "transactionsTrie": "0x56e81f171bcc55a6ff8345e692c0f86e5b48e01b996cadc001622fb5e363b421",
                        "uncleHash": "0x1dcc4de8dec75d7aab85b567b6ccd41ad312451b948a7413f0a142fd40d49347"
                    }
                ]
            }
        ],
        "genesisBlockHeader": {
            "bloom": "0x00000000000000000000000000000000000000000000000000000000000000000000000000000000000000000000000000000000000000000000000000000000000000000000000000000000000000000000000000000000000000000000000000000000000000000000000000000000000000000000000000000000000000000000000000000000000000000000000000000000000000000000000000000000000000000000000000000000000000000000000000000000000000000000000000000000000000000000000000000000000000000000000000000000000000000000000000000000000000000000000000000000000000000000000000000000",
            "coinbase": "0x8888f1f195afa192cfee860698584c030f4c9db1",
            "difficulty": "0x020000",
            "extraData": "0x42",
            "gasLimit": "0x2625a00",
            "gasUsed": "0x00",
            "hash": "0x965b4d08c1502c3528a1749be5fb2623652d5a87a88768daca6566228849e0aa",
            "mixHash": "0x56e81f171bcc55a6ff8345e692c0f86e5b48e01b996cadc001622fb5e363b421",
            "nonce": "0x0102030405060708",
            "number": "0x00",
            "parentHash": "0x0000000000000000000000000000000000000000000000000000000000000000",
            "receiptTrie": "0x56e81f171bcc55a6ff8345e692c0f86e5b48e01b996cadc001622fb5e363b421",
            "stateRoot": "0xd7cc3cb38059d3911f7c0206fad2ad077bc27bdf0ed649cd84140ec2a92ee807",
            "timestamp": "0x54c98c81",
            "transactionsTrie": "0x56e81f171bcc55a6ff8345e692c0f86e5b48e01b996cadc001622fb5e363b421",
            "uncleHash": "0x1dcc4de8dec75d7aab85b567b6ccd41ad312451b948a7413f0a142fd40d49347"
        },
        "genesisRLP": "0xf901faf901f5a00000000000000000000000000000000000000000000000000000000000000000a01dcc4de8dec75d7aab85b567b6ccd41ad312451b948a7413f0a142fd40d49347948888f1f195afa192cfee860698584c030f4c9db1a00000000000000000000000000000000000000000000000000000000000000000a056e81f171bcc55a6ff8345e692c0f86e5b48e01b996cadc001622fb5e363b421a00000000000000000000000000000000000000000000000000000000000000000b9010000000000000000000000000000000000000000000000000000000000000000000000000000000000000000000000000000000000000000000000000000000000000000000000000000000000000000000000000000000000000000000000000000000000000000000000000000000000000000000000000000000000000000000000000000000000000000000000000000000000000000000000000000000000000000000000000000000000000000000000000000000000000000000000000000000000000000000000000000000000000000000000000000000000000000000000000000000000000000000000000000000000000000000000000000000000830200008080808454c98c8180a0000000000000000000000000000000000000000000000000000000000000000088010203040506070880c0c0",
        "lastblockhash": "0x52198e491f4bcd6c7ee71060bcd4ac3d737fb4b354f0f57eb963cee16fa50103",
        "network": "FrontierToHomesteadAt5",
        "postState": {
            "0x0000000000000000000000000000000000000000": {
                "balance": "0x3cb71f51fc558000",
                "code": "",
                "nonce": "0x00",
                "storage": {}
            },
            "0x8888f1f195afa192cfee860698584c030f4c9db1": {
                "balance": "0x01a2808599afdff208",
                "code": "",
                "nonce": "0x00",
                "storage": {}
            },
            "0xa94f5374fce5edbc8e2a8697c15331677e6ebf0b": {
                "balance": "0x02540b91ee",
                "code": "",
                "nonce": "0x01",
                "storage": {}
            },
            "0xb94f5374fce5edbc8e2a8697c15331677e6ebf0b": {
                "balance": "0x0a",
                "code": "",
                "nonce": "0x00",
                "storage": {}
            }
        },
        "pre": {
            "0xa94f5374fce5edbc8e2a8697c15331677e6ebf0b": {
                "balance": "0x02540be400",
                "code": "",
                "nonce": "0x00",
                "storage": {}
            }
        },
        "sealEngine": "",
        "chainname": ""
    }
}