{
    "gasLimitTooHigh_Byzantium": {
        "_info": {
            "comment": "",
            "filledwith": "testeth 1.6.0-alpha.0-12+commit.05b55e64",
            "lllcversion": "Version: 0.5.0-develop.2018.11.9+commit.9709dfe0.Linux.g++",
            "source": "src/BlockchainTestsFiller/bcValidBlockTest/gasLimitTooHighFiller.json",
            "sourceHash": "49e90ea3ceee7ff39f93fa1126b03cb35619f743d977ede44cb53cf2776337e0"
        },
        "blocks": [
            {
                "blockHeader": {
                    "bloom": "0x00000000000000000000000000000000000000000000000000000000000000000000000000000000000000000000000000000000000000000000000000000000000000000000000000000000000000000000000000000000000000000000000000000000000000000000000000000000000000000000000000000000000000000000000000000000000000000000000000000000000000000000000000000000000000000000000000000000000000000000000000000000000000000000000000000000000000000000000000000000000000000000000000000000000000000000000000000000000000000000000000000000000000000000000000000000",
                    "coinbase": "0x8888f1f195afa192cfee860698584c030f4c9db1",
                    "difficulty": "0x020000",
                    "extraData": "",
                    "gasLimit": "0x2625a64",
                    "gasUsed": "0x00",
                    "hash": "0xbe1d8ee8643465cf6daeb4662665eaf38f5395d762228dcfbdccd691ccf70cba",
                    "mixHash": "0x0000000000000000000000000000000000000000000000000000000000000000",
                    "nonce": "0x0000000000000000",
                    "number": "0x01",
                    "parentHash": "0x965b4d08c1502c3528a1749be5fb2623652d5a87a88768daca6566228849e0aa",
                    "receiptTrie": "0x56e81f171bcc55a6ff8345e692c0f86e5b48e01b996cadc001622fb5e363b421",
                    "stateRoot": "0x1832e57a5dd13384ed5e6681323db2d23d4a264d4f960bcc78a41645a3e377e4",
                    "timestamp": "0x5c477753",
                    "transactionsTrie": "0x56e81f171bcc55a6ff8345e692c0f86e5b48e01b996cadc001622fb5e363b421",
                    "uncleHash": "0x1dcc4de8dec75d7aab85b567b6ccd41ad312451b948a7413f0a142fd40d49347"
                },
                "blocknumber": "",
                "rlp": "0xf901fef901f9a0965b4d08c1502c3528a1749be5fb2623652d5a87a88768daca6566228849e0aaa01dcc4de8dec75d7aab85b567b6ccd41ad312451b948a7413f0a142fd40d49347948888f1f195afa192cfee860698584c030f4c9db1a01832e57a5dd13384ed5e6681323db2d23d4a264d4f960bcc78a41645a3e377e4a056e81f171bcc55a6ff8345e692c0f86e5b48e01b996cadc001622fb5e363b421a056e81f171bcc55a6ff8345e692c0f86e5b48e01b996cadc001622fb5e363b421b901000000000000000000000000000000000000000000000000000000000000000000000000000000000000000000000000000000000000000000000000000000000000000000000000000000000000000000000000000000000000000000000000000000000000000000000000000000000000000000000000000000000000000000000000000000000000000000000000000000000000000000000000000000000000000000000000000000000000000000000000000000000000000000000000000000000000000000000000000000000000000000000000000000000000000000000000000000000000000000000000000000000000000000000000000000000083020000018402625a6480845c47775380a0000000000000000000000000000000000000000000000000000000000000000088000000000000000080c0c0",
                "transactions": [],
                "uncleHeaders": []
            }
        ],
        "genesisBlockHeader": {
            "bloom": "0x00000000000000000000000000000000000000000000000000000000000000000000000000000000000000000000000000000000000000000000000000000000000000000000000000000000000000000000000000000000000000000000000000000000000000000000000000000000000000000000000000000000000000000000000000000000000000000000000000000000000000000000000000000000000000000000000000000000000000000000000000000000000000000000000000000000000000000000000000000000000000000000000000000000000000000000000000000000000000000000000000000000000000000000000000000000",
            "coinbase": "0x8888f1f195afa192cfee860698584c030f4c9db1",
            "difficulty": "0x020000",
            "extraData": "0x42",
            "gasLimit": "0x2625a00",
            "gasUsed": "0x00",
            "hash": "0x965b4d08c1502c3528a1749be5fb2623652d5a87a88768daca6566228849e0aa",
            "mixHash": "0x56e81f171bcc55a6ff8345e692c0f86e5b48e01b996cadc001622fb5e363b421",
            "nonce": "0x0102030405060708",
            "number": "0x00",
            "parentHash": "0x0000000000000000000000000000000000000000000000000000000000000000",
            "receiptTrie": "0x56e81f171bcc55a6ff8345e692c0f86e5b48e01b996cadc001622fb5e363b421",
            "stateRoot": "0xd7cc3cb38059d3911f7c0206fad2ad077bc27bdf0ed649cd84140ec2a92ee807",
            "timestamp": "0x54c98c81",
            "transactionsTrie": "0x56e81f171bcc55a6ff8345e692c0f86e5b48e01b996cadc001622fb5e363b421",
            "uncleHash": "0x1dcc4de8dec75d7aab85b567b6ccd41ad312451b948a7413f0a142fd40d49347"
        },
        "genesisRLP": "0xf901faf901f5a00000000000000000000000000000000000000000000000000000000000000000a01dcc4de8dec75d7aab85b567b6ccd41ad312451b948a7413f0a142fd40d49347948888f1f195afa192cfee860698584c030f4c9db1a00000000000000000000000000000000000000000000000000000000000000000a056e81f171bcc55a6ff8345e692c0f86e5b48e01b996cadc001622fb5e363b421a00000000000000000000000000000000000000000000000000000000000000000b9010000000000000000000000000000000000000000000000000000000000000000000000000000000000000000000000000000000000000000000000000000000000000000000000000000000000000000000000000000000000000000000000000000000000000000000000000000000000000000000000000000000000000000000000000000000000000000000000000000000000000000000000000000000000000000000000000000000000000000000000000000000000000000000000000000000000000000000000000000000000000000000000000000000000000000000000000000000000000000000000000000000000000000000000000000000000830200008080808454c98c8180a0000000000000000000000000000000000000000000000000000000000000000088010203040506070880c0c0",
        "lastblockhash": "0x39d9495f986f349db5cc3a063a7cc7707b156a5518e8ffc8d316fe0da6ab66ea",
        "network": "Byzantium",
        "postState": {
            "0x8888f1f195afa192cfee860698584c030f4c9db1": {
                "balance": "0x29a2241af62c0000",
                "code": "",
                "nonce": "0x00",
                "storage": {}
            },
            "0xa94f5374fce5edbc8e2a8697c15331677e6ebf0b": {
                "balance": "0x02540be400",
                "code": "",
                "nonce": "0x00",
                "storage": {}
            }
        },
        "pre": {
            "0xa94f5374fce5edbc8e2a8697c15331677e6ebf0b": {
                "balance": "0x02540be400",
                "code": "",
                "nonce": "0x00",
                "storage": {}
            }
        },
        "sealEngine": "NoProof",
        "chainname": ""
    },
    "gasLimitTooHigh_Constantinople": {
        "_info": {
            "comment": "",
            "filledwith": "testeth 1.6.0-alpha.0-12+commit.05b55e64",
            "lllcversion": "Version: 0.5.0-develop.2018.11.9+commit.9709dfe0.Linux.g++",
            "source": "src/BlockchainTestsFiller/bcValidBlockTest/gasLimitTooHighFiller.json",
            "sourceHash": "49e90ea3ceee7ff39f93fa1126b03cb35619f743d977ede44cb53cf2776337e0"
        },
        "blocks": [
            {
                "blockHeader": {
                    "bloom": "0x00000000000000000000000000000000000000000000000000000000000000000000000000000000000000000000000000000000000000000000000000000000000000000000000000000000000000000000000000000000000000000000000000000000000000000000000000000000000000000000000000000000000000000000000000000000000000000000000000000000000000000000000000000000000000000000000000000000000000000000000000000000000000000000000000000000000000000000000000000000000000000000000000000000000000000000000000000000000000000000000000000000000000000000000000000000",
                    "coinbase": "0x8888f1f195afa192cfee860698584c030f4c9db1",
                    "difficulty": "0x020000",
                    "extraData": "",
                    "gasLimit": "0x2625a64",
                    "gasUsed": "0x00",
                    "hash": "0xe1557703bf05a2f235f21830878ea954b65b79d0166e480009aa956b190e01f6",
                    "mixHash": "0x0000000000000000000000000000000000000000000000000000000000000000",
                    "nonce": "0x0000000000000000",
                    "number": "0x01",
                    "parentHash": "0x965b4d08c1502c3528a1749be5fb2623652d5a87a88768daca6566228849e0aa",
                    "receiptTrie": "0x56e81f171bcc55a6ff8345e692c0f86e5b48e01b996cadc001622fb5e363b421",
                    "stateRoot": "0xc55a8704725cb1f963751b02a902e95528780a7375d4848ec2ddced2e4737a03",
                    "timestamp": "0x5c477753",
                    "transactionsTrie": "0x56e81f171bcc55a6ff8345e692c0f86e5b48e01b996cadc001622fb5e363b421",
                    "uncleHash": "0x1dcc4de8dec75d7aab85b567b6ccd41ad312451b948a7413f0a142fd40d49347"
                },
                "blocknumber": "",
                "rlp": "0xf901fef901f9a0965b4d08c1502c3528a1749be5fb2623652d5a87a88768daca6566228849e0aaa01dcc4de8dec75d7aab85b567b6ccd41ad312451b948a7413f0a142fd40d49347948888f1f195afa192cfee860698584c030f4c9db1a0c55a8704725cb1f963751b02a902e95528780a7375d4848ec2ddced2e4737a03a056e81f171bcc55a6ff8345e692c0f86e5b48e01b996cadc001622fb5e363b421a056e81f171bcc55a6ff8345e692c0f86e5b48e01b996cadc001622fb5e363b421b901000000000000000000000000000000000000000000000000000000000000000000000000000000000000000000000000000000000000000000000000000000000000000000000000000000000000000000000000000000000000000000000000000000000000000000000000000000000000000000000000000000000000000000000000000000000000000000000000000000000000000000000000000000000000000000000000000000000000000000000000000000000000000000000000000000000000000000000000000000000000000000000000000000000000000000000000000000000000000000000000000000000000000000000000000000000083020000018402625a6480845c47775380a0000000000000000000000000000000000000000000000000000000000000000088000000000000000080c0c0",
                "transactions": [],
                "uncleHeaders": []
            }
        ],
        "genesisBlockHeader": {
            "bloom": "0x00000000000000000000000000000000000000000000000000000000000000000000000000000000000000000000000000000000000000000000000000000000000000000000000000000000000000000000000000000000000000000000000000000000000000000000000000000000000000000000000000000000000000000000000000000000000000000000000000000000000000000000000000000000000000000000000000000000000000000000000000000000000000000000000000000000000000000000000000000000000000000000000000000000000000000000000000000000000000000000000000000000000000000000000000000000",
            "coinbase": "0x8888f1f195afa192cfee860698584c030f4c9db1",
            "difficulty": "0x020000",
            "extraData": "0x42",
            "gasLimit": "0x2625a00",
            "gasUsed": "0x00",
            "hash": "0x965b4d08c1502c3528a1749be5fb2623652d5a87a88768daca6566228849e0aa",
            "mixHash": "0x56e81f171bcc55a6ff8345e692c0f86e5b48e01b996cadc001622fb5e363b421",
            "nonce": "0x0102030405060708",
            "number": "0x00",
            "parentHash": "0x0000000000000000000000000000000000000000000000000000000000000000",
            "receiptTrie": "0x56e81f171bcc55a6ff8345e692c0f86e5b48e01b996cadc001622fb5e363b421",
            "stateRoot": "0xd7cc3cb38059d3911f7c0206fad2ad077bc27bdf0ed649cd84140ec2a92ee807",
            "timestamp": "0x54c98c81",
            "transactionsTrie": "0x56e81f171bcc55a6ff8345e692c0f86e5b48e01b996cadc001622fb5e363b421",
            "uncleHash": "0x1dcc4de8dec75d7aab85b567b6ccd41ad312451b948a7413f0a142fd40d49347"
        },
        "genesisRLP": "0xf901faf901f5a00000000000000000000000000000000000000000000000000000000000000000a01dcc4de8dec75d7aab85b567b6ccd41ad312451b948a7413f0a142fd40d49347948888f1f195afa192cfee860698584c030f4c9db1a00000000000000000000000000000000000000000000000000000000000000000a056e81f171bcc55a6ff8345e692c0f86e5b48e01b996cadc001622fb5e363b421a00000000000000000000000000000000000000000000000000000000000000000b9010000000000000000000000000000000000000000000000000000000000000000000000000000000000000000000000000000000000000000000000000000000000000000000000000000000000000000000000000000000000000000000000000000000000000000000000000000000000000000000000000000000000000000000000000000000000000000000000000000000000000000000000000000000000000000000000000000000000000000000000000000000000000000000000000000000000000000000000000000000000000000000000000000000000000000000000000000000000000000000000000000000000000000000000000000000000830200008080808454c98c8180a0000000000000000000000000000000000000000000000000000000000000000088010203040506070880c0c0",
        "lastblockhash": "0x14ce797350286db15917c3ed50d11254993077ff0d56410fa539de626e612b5c",
        "network": "Constantinople",
        "postState": {
            "0x8888f1f195afa192cfee860698584c030f4c9db1": {
                "balance": "0x1bc16d674ec80000",
                "code": "",
                "nonce": "0x00",
                "storage": {}
            },
            "0xa94f5374fce5edbc8e2a8697c15331677e6ebf0b": {
                "balance": "0x02540be400",
                "code": "",
                "nonce": "0x00",
                "storage": {}
            }
        },
        "pre": {
            "0xa94f5374fce5edbc8e2a8697c15331677e6ebf0b": {
                "balance": "0x02540be400",
                "code": "",
                "nonce": "0x00",
                "storage": {}
            }
        },
        "sealEngine": "NoProof",
        "chainname": ""
    },
    "gasLimitTooHigh_ConstantinopleFix": {
        "_info": {
            "comment": "",
            "filledwith": "testeth 1.6.0-alpha.0-12+commit.05b55e64",
            "lllcversion": "Version: 0.5.0-develop.2018.11.9+commit.9709dfe0.Linux.g++",
            "source": "src/BlockchainTestsFiller/bcValidBlockTest/gasLimitTooHighFiller.json",
            "sourceHash": "49e90ea3ceee7ff39f93fa1126b03cb35619f743d977ede44cb53cf2776337e0"
        },
        "blocks": [
            {
                "blockHeader": {
                    "bloom": "0x00000000000000000000000000000000000000000000000000000000000000000000000000000000000000000000000000000000000000000000000000000000000000000000000000000000000000000000000000000000000000000000000000000000000000000000000000000000000000000000000000000000000000000000000000000000000000000000000000000000000000000000000000000000000000000000000000000000000000000000000000000000000000000000000000000000000000000000000000000000000000000000000000000000000000000000000000000000000000000000000000000000000000000000000000000000",
                    "coinbase": "0x8888f1f195afa192cfee860698584c030f4c9db1",
                    "difficulty": "0x020000",
                    "extraData": "",
                    "gasLimit": "0x2625a64",
                    "gasUsed": "0x00",
                    "hash": "0xe1557703bf05a2f235f21830878ea954b65b79d0166e480009aa956b190e01f6",
                    "mixHash": "0x0000000000000000000000000000000000000000000000000000000000000000",
                    "nonce": "0x0000000000000000",
                    "number": "0x01",
                    "parentHash": "0x965b4d08c1502c3528a1749be5fb2623652d5a87a88768daca6566228849e0aa",
                    "receiptTrie": "0x56e81f171bcc55a6ff8345e692c0f86e5b48e01b996cadc001622fb5e363b421",
                    "stateRoot": "0xc55a8704725cb1f963751b02a902e95528780a7375d4848ec2ddced2e4737a03",
                    "timestamp": "0x5c477753",
                    "transactionsTrie": "0x56e81f171bcc55a6ff8345e692c0f86e5b48e01b996cadc001622fb5e363b421",
                    "uncleHash": "0x1dcc4de8dec75d7aab85b567b6ccd41ad312451b948a7413f0a142fd40d49347"
                },
                "blocknumber": "",
                "rlp": "0xf901fef901f9a0965b4d08c1502c3528a1749be5fb2623652d5a87a88768daca6566228849e0aaa01dcc4de8dec75d7aab85b567b6ccd41ad312451b948a7413f0a142fd40d49347948888f1f195afa192cfee860698584c030f4c9db1a0c55a8704725cb1f963751b02a902e95528780a7375d4848ec2ddced2e4737a03a056e81f171bcc55a6ff8345e692c0f86e5b48e01b996cadc001622fb5e363b421a056e81f171bcc55a6ff8345e692c0f86e5b48e01b996cadc001622fb5e363b421b901000000000000000000000000000000000000000000000000000000000000000000000000000000000000000000000000000000000000000000000000000000000000000000000000000000000000000000000000000000000000000000000000000000000000000000000000000000000000000000000000000000000000000000000000000000000000000000000000000000000000000000000000000000000000000000000000000000000000000000000000000000000000000000000000000000000000000000000000000000000000000000000000000000000000000000000000000000000000000000000000000000000000000000000000000000000083020000018402625a6480845c47775380a0000000000000000000000000000000000000000000000000000000000000000088000000000000000080c0c0",
                "transactions": [],
                "uncleHeaders": []
            }
        ],
        "genesisBlockHeader": {
            "bloom": "0x00000000000000000000000000000000000000000000000000000000000000000000000000000000000000000000000000000000000000000000000000000000000000000000000000000000000000000000000000000000000000000000000000000000000000000000000000000000000000000000000000000000000000000000000000000000000000000000000000000000000000000000000000000000000000000000000000000000000000000000000000000000000000000000000000000000000000000000000000000000000000000000000000000000000000000000000000000000000000000000000000000000000000000000000000000000",
            "coinbase": "0x8888f1f195afa192cfee860698584c030f4c9db1",
            "difficulty": "0x020000",
            "extraData": "0x42",
            "gasLimit": "0x2625a00",
            "gasUsed": "0x00",
            "hash": "0x965b4d08c1502c3528a1749be5fb2623652d5a87a88768daca6566228849e0aa",
            "mixHash": "0x56e81f171bcc55a6ff8345e692c0f86e5b48e01b996cadc001622fb5e363b421",
            "nonce": "0x0102030405060708",
            "number": "0x00",
            "parentHash": "0x0000000000000000000000000000000000000000000000000000000000000000",
            "receiptTrie": "0x56e81f171bcc55a6ff8345e692c0f86e5b48e01b996cadc001622fb5e363b421",
            "stateRoot": "0xd7cc3cb38059d3911f7c0206fad2ad077bc27bdf0ed649cd84140ec2a92ee807",
            "timestamp": "0x54c98c81",
            "transactionsTrie": "0x56e81f171bcc55a6ff8345e692c0f86e5b48e01b996cadc001622fb5e363b421",
            "uncleHash": "0x1dcc4de8dec75d7aab85b567b6ccd41ad312451b948a7413f0a142fd40d49347"
        },
        "genesisRLP": "0xf901faf901f5a00000000000000000000000000000000000000000000000000000000000000000a01dcc4de8dec75d7aab85b567b6ccd41ad312451b948a7413f0a142fd40d49347948888f1f195afa192cfee860698584c030f4c9db1a00000000000000000000000000000000000000000000000000000000000000000a056e81f171bcc55a6ff8345e692c0f86e5b48e01b996cadc001622fb5e363b421a00000000000000000000000000000000000000000000000000000000000000000b9010000000000000000000000000000000000000000000000000000000000000000000000000000000000000000000000000000000000000000000000000000000000000000000000000000000000000000000000000000000000000000000000000000000000000000000000000000000000000000000000000000000000000000000000000000000000000000000000000000000000000000000000000000000000000000000000000000000000000000000000000000000000000000000000000000000000000000000000000000000000000000000000000000000000000000000000000000000000000000000000000000000000000000000000000000000000830200008080808454c98c8180a0000000000000000000000000000000000000000000000000000000000000000088010203040506070880c0c0",
        "lastblockhash": "0x14ce797350286db15917c3ed50d11254993077ff0d56410fa539de626e612b5c",
        "network": "ConstantinopleFix",
        "postState": {
            "0x8888f1f195afa192cfee860698584c030f4c9db1": {
                "balance": "0x1bc16d674ec80000",
                "code": "",
                "nonce": "0x00",
                "storage": {}
            },
            "0xa94f5374fce5edbc8e2a8697c15331677e6ebf0b": {
                "balance": "0x02540be400",
                "code": "",
                "nonce": "0x00",
                "storage": {}
            }
        },
        "pre": {
            "0xa94f5374fce5edbc8e2a8697c15331677e6ebf0b": {
                "balance": "0x02540be400",
                "code": "",
                "nonce": "0x00",
                "storage": {}
            }
        },
        "sealEngine": "NoProof",
        "chainname": ""
    },
    "gasLimitTooHigh_EIP150": {
        "_info": {
            "comment": "",
            "filledwith": "testeth 1.6.0-alpha.0-12+commit.05b55e64",
            "lllcversion": "Version: 0.5.0-develop.2018.11.9+commit.9709dfe0.Linux.g++",
            "source": "src/BlockchainTestsFiller/bcValidBlockTest/gasLimitTooHighFiller.json",
            "sourceHash": "49e90ea3ceee7ff39f93fa1126b03cb35619f743d977ede44cb53cf2776337e0"
        },
        "blocks": [
            {
                "blockHeader": {
                    "bloom": "0x00000000000000000000000000000000000000000000000000000000000000000000000000000000000000000000000000000000000000000000000000000000000000000000000000000000000000000000000000000000000000000000000000000000000000000000000000000000000000000000000000000000000000000000000000000000000000000000000000000000000000000000000000000000000000000000000000000000000000000000000000000000000000000000000000000000000000000000000000000000000000000000000000000000000000000000000000000000000000000000000000000000000000000000000000000000",
                    "coinbase": "0x8888f1f195afa192cfee860698584c030f4c9db1",
                    "difficulty": "0x020000",
                    "extraData": "",
                    "gasLimit": "0x2625a64",
                    "gasUsed": "0x00",
                    "hash": "0xf7cc671101c6eb45b0c286b432dd7b26d48952c777ee0f623bc63ede521302f9",
                    "mixHash": "0x0000000000000000000000000000000000000000000000000000000000000000",
                    "nonce": "0x0000000000000000",
                    "number": "0x01",
                    "parentHash": "0x965b4d08c1502c3528a1749be5fb2623652d5a87a88768daca6566228849e0aa",
                    "receiptTrie": "0x56e81f171bcc55a6ff8345e692c0f86e5b48e01b996cadc001622fb5e363b421",
                    "stateRoot": "0x35f92b42316d1a78441390629a65c1a68309a1bfbdad5be9bc18c45a0308343a",
                    "timestamp": "0x5c477752",
                    "transactionsTrie": "0x56e81f171bcc55a6ff8345e692c0f86e5b48e01b996cadc001622fb5e363b421",
                    "uncleHash": "0x1dcc4de8dec75d7aab85b567b6ccd41ad312451b948a7413f0a142fd40d49347"
                },
                "blocknumber": "",
                "rlp": "0xf901fef901f9a0965b4d08c1502c3528a1749be5fb2623652d5a87a88768daca6566228849e0aaa01dcc4de8dec75d7aab85b567b6ccd41ad312451b948a7413f0a142fd40d49347948888f1f195afa192cfee860698584c030f4c9db1a035f92b42316d1a78441390629a65c1a68309a1bfbdad5be9bc18c45a0308343aa056e81f171bcc55a6ff8345e692c0f86e5b48e01b996cadc001622fb5e363b421a056e81f171bcc55a6ff8345e692c0f86e5b48e01b996cadc001622fb5e363b421b901000000000000000000000000000000000000000000000000000000000000000000000000000000000000000000000000000000000000000000000000000000000000000000000000000000000000000000000000000000000000000000000000000000000000000000000000000000000000000000000000000000000000000000000000000000000000000000000000000000000000000000000000000000000000000000000000000000000000000000000000000000000000000000000000000000000000000000000000000000000000000000000000000000000000000000000000000000000000000000000000000000000000000000000000000000000083020000018402625a6480845c47775280a0000000000000000000000000000000000000000000000000000000000000000088000000000000000080c0c0",
                "transactions": [],
                "uncleHeaders": []
            }
        ],
        "genesisBlockHeader": {
            "bloom": "0x00000000000000000000000000000000000000000000000000000000000000000000000000000000000000000000000000000000000000000000000000000000000000000000000000000000000000000000000000000000000000000000000000000000000000000000000000000000000000000000000000000000000000000000000000000000000000000000000000000000000000000000000000000000000000000000000000000000000000000000000000000000000000000000000000000000000000000000000000000000000000000000000000000000000000000000000000000000000000000000000000000000000000000000000000000000",
            "coinbase": "0x8888f1f195afa192cfee860698584c030f4c9db1",
            "difficulty": "0x020000",
            "extraData": "0x42",
            "gasLimit": "0x2625a00",
            "gasUsed": "0x00",
            "hash": "0x965b4d08c1502c3528a1749be5fb2623652d5a87a88768daca6566228849e0aa",
            "mixHash": "0x56e81f171bcc55a6ff8345e692c0f86e5b48e01b996cadc001622fb5e363b421",
            "nonce": "0x0102030405060708",
            "number": "0x00",
            "parentHash": "0x0000000000000000000000000000000000000000000000000000000000000000",
            "receiptTrie": "0x56e81f171bcc55a6ff8345e692c0f86e5b48e01b996cadc001622fb5e363b421",
            "stateRoot": "0xd7cc3cb38059d3911f7c0206fad2ad077bc27bdf0ed649cd84140ec2a92ee807",
            "timestamp": "0x54c98c81",
            "transactionsTrie": "0x56e81f171bcc55a6ff8345e692c0f86e5b48e01b996cadc001622fb5e363b421",
            "uncleHash": "0x1dcc4de8dec75d7aab85b567b6ccd41ad312451b948a7413f0a142fd40d49347"
        },
        "genesisRLP": "0xf901faf901f5a00000000000000000000000000000000000000000000000000000000000000000a01dcc4de8dec75d7aab85b567b6ccd41ad312451b948a7413f0a142fd40d49347948888f1f195afa192cfee860698584c030f4c9db1a00000000000000000000000000000000000000000000000000000000000000000a056e81f171bcc55a6ff8345e692c0f86e5b48e01b996cadc001622fb5e363b421a00000000000000000000000000000000000000000000000000000000000000000b9010000000000000000000000000000000000000000000000000000000000000000000000000000000000000000000000000000000000000000000000000000000000000000000000000000000000000000000000000000000000000000000000000000000000000000000000000000000000000000000000000000000000000000000000000000000000000000000000000000000000000000000000000000000000000000000000000000000000000000000000000000000000000000000000000000000000000000000000000000000000000000000000000000000000000000000000000000000000000000000000000000000000000000000000000000000000830200008080808454c98c8180a0000000000000000000000000000000000000000000000000000000000000000088010203040506070880c0c0",
        "lastblockhash": "0xc8d7215ce5982a49d357bf122731892fd8604a0431f683e2f09f39e2a9fd6bf5",
        "network": "EIP150",
        "postState": {
            "0x8888f1f195afa192cfee860698584c030f4c9db1": {
                "balance": "0x4563918244f40000",
                "code": "",
                "nonce": "0x00",
                "storage": {}
            },
            "0xa94f5374fce5edbc8e2a8697c15331677e6ebf0b": {
                "balance": "0x02540be400",
                "code": "",
                "nonce": "0x00",
                "storage": {}
            }
        },
        "pre": {
            "0xa94f5374fce5edbc8e2a8697c15331677e6ebf0b": {
                "balance": "0x02540be400",
                "code": "",
                "nonce": "0x00",
                "storage": {}
            }
        },
        "sealEngine": "NoProof",
        "chainname": ""
    },
    "gasLimitTooHigh_EIP158": {
        "_info": {
            "comment": "",
            "filledwith": "testeth 1.6.0-alpha.0-12+commit.05b55e64",
            "lllcversion": "Version: 0.5.0-develop.2018.11.9+commit.9709dfe0.Linux.g++",
            "source": "src/BlockchainTestsFiller/bcValidBlockTest/gasLimitTooHighFiller.json",
            "sourceHash": "49e90ea3ceee7ff39f93fa1126b03cb35619f743d977ede44cb53cf2776337e0"
        },
        "blocks": [
            {
                "blockHeader": {
                    "bloom": "0x00000000000000000000000000000000000000000000000000000000000000000000000000000000000000000000000000000000000000000000000000000000000000000000000000000000000000000000000000000000000000000000000000000000000000000000000000000000000000000000000000000000000000000000000000000000000000000000000000000000000000000000000000000000000000000000000000000000000000000000000000000000000000000000000000000000000000000000000000000000000000000000000000000000000000000000000000000000000000000000000000000000000000000000000000000000",
                    "coinbase": "0x8888f1f195afa192cfee860698584c030f4c9db1",
                    "difficulty": "0x020000",
                    "extraData": "",
                    "gasLimit": "0x2625a64",
                    "gasUsed": "0x00",
                    "hash": "0x75f8061ee51571a47f986297107c948e6ce0a9f391aa6b06516b73c6c5b25cc3",
                    "mixHash": "0x0000000000000000000000000000000000000000000000000000000000000000",
                    "nonce": "0x0000000000000000",
                    "number": "0x01",
                    "parentHash": "0x965b4d08c1502c3528a1749be5fb2623652d5a87a88768daca6566228849e0aa",
                    "receiptTrie": "0x56e81f171bcc55a6ff8345e692c0f86e5b48e01b996cadc001622fb5e363b421",
                    "stateRoot": "0x35f92b42316d1a78441390629a65c1a68309a1bfbdad5be9bc18c45a0308343a",
                    "timestamp": "0x5c477753",
                    "transactionsTrie": "0x56e81f171bcc55a6ff8345e692c0f86e5b48e01b996cadc001622fb5e363b421",
                    "uncleHash": "0x1dcc4de8dec75d7aab85b567b6ccd41ad312451b948a7413f0a142fd40d49347"
                },
                "blocknumber": "",
                "rlp": "0xf901fef901f9a0965b4d08c1502c3528a1749be5fb2623652d5a87a88768daca6566228849e0aaa01dcc4de8dec75d7aab85b567b6ccd41ad312451b948a7413f0a142fd40d49347948888f1f195afa192cfee860698584c030f4c9db1a035f92b42316d1a78441390629a65c1a68309a1bfbdad5be9bc18c45a0308343aa056e81f171bcc55a6ff8345e692c0f86e5b48e01b996cadc001622fb5e363b421a056e81f171bcc55a6ff8345e692c0f86e5b48e01b996cadc001622fb5e363b421b901000000000000000000000000000000000000000000000000000000000000000000000000000000000000000000000000000000000000000000000000000000000000000000000000000000000000000000000000000000000000000000000000000000000000000000000000000000000000000000000000000000000000000000000000000000000000000000000000000000000000000000000000000000000000000000000000000000000000000000000000000000000000000000000000000000000000000000000000000000000000000000000000000000000000000000000000000000000000000000000000000000000000000000000000000000000083020000018402625a6480845c47775380a0000000000000000000000000000000000000000000000000000000000000000088000000000000000080c0c0",
                "transactions": [],
                "uncleHeaders": []
            }
        ],
        "genesisBlockHeader": {
            "bloom": "0x00000000000000000000000000000000000000000000000000000000000000000000000000000000000000000000000000000000000000000000000000000000000000000000000000000000000000000000000000000000000000000000000000000000000000000000000000000000000000000000000000000000000000000000000000000000000000000000000000000000000000000000000000000000000000000000000000000000000000000000000000000000000000000000000000000000000000000000000000000000000000000000000000000000000000000000000000000000000000000000000000000000000000000000000000000000",
            "coinbase": "0x8888f1f195afa192cfee860698584c030f4c9db1",
            "difficulty": "0x020000",
            "extraData": "0x42",
            "gasLimit": "0x2625a00",
            "gasUsed": "0x00",
            "hash": "0x965b4d08c1502c3528a1749be5fb2623652d5a87a88768daca6566228849e0aa",
            "mixHash": "0x56e81f171bcc55a6ff8345e692c0f86e5b48e01b996cadc001622fb5e363b421",
            "nonce": "0x0102030405060708",
            "number": "0x00",
            "parentHash": "0x0000000000000000000000000000000000000000000000000000000000000000",
            "receiptTrie": "0x56e81f171bcc55a6ff8345e692c0f86e5b48e01b996cadc001622fb5e363b421",
            "stateRoot": "0xd7cc3cb38059d3911f7c0206fad2ad077bc27bdf0ed649cd84140ec2a92ee807",
            "timestamp": "0x54c98c81",
            "transactionsTrie": "0x56e81f171bcc55a6ff8345e692c0f86e5b48e01b996cadc001622fb5e363b421",
            "uncleHash": "0x1dcc4de8dec75d7aab85b567b6ccd41ad312451b948a7413f0a142fd40d49347"
        },
        "genesisRLP": "0xf901faf901f5a00000000000000000000000000000000000000000000000000000000000000000a01dcc4de8dec75d7aab85b567b6ccd41ad312451b948a7413f0a142fd40d49347948888f1f195afa192cfee860698584c030f4c9db1a00000000000000000000000000000000000000000000000000000000000000000a056e81f171bcc55a6ff8345e692c0f86e5b48e01b996cadc001622fb5e363b421a00000000000000000000000000000000000000000000000000000000000000000b9010000000000000000000000000000000000000000000000000000000000000000000000000000000000000000000000000000000000000000000000000000000000000000000000000000000000000000000000000000000000000000000000000000000000000000000000000000000000000000000000000000000000000000000000000000000000000000000000000000000000000000000000000000000000000000000000000000000000000000000000000000000000000000000000000000000000000000000000000000000000000000000000000000000000000000000000000000000000000000000000000000000000000000000000000000000000830200008080808454c98c8180a0000000000000000000000000000000000000000000000000000000000000000088010203040506070880c0c0",
        "lastblockhash": "0xe1ac2322532a6f7757b57f4f57aa63226ae61f2112af37929c6c27ebb2b543b7",
        "network": "EIP158",
        "postState": {
            "0x8888f1f195afa192cfee860698584c030f4c9db1": {
                "balance": "0x4563918244f40000",
                "code": "",
                "nonce": "0x00",
                "storage": {}
            },
            "0xa94f5374fce5edbc8e2a8697c15331677e6ebf0b": {
                "balance": "0x02540be400",
                "code": "",
                "nonce": "0x00",
                "storage": {}
            }
        },
        "pre": {
            "0xa94f5374fce5edbc8e2a8697c15331677e6ebf0b": {
                "balance": "0x02540be400",
                "code": "",
                "nonce": "0x00",
                "storage": {}
            }
        },
        "sealEngine": "NoProof",
        "chainname": ""
    },
    "gasLimitTooHigh_Frontier": {
        "_info": {
            "comment": "",
            "filledwith": "testeth 1.6.0-alpha.0-12+commit.05b55e64",
            "lllcversion": "Version: 0.5.0-develop.2018.11.9+commit.9709dfe0.Linux.g++",
            "source": "src/BlockchainTestsFiller/bcValidBlockTest/gasLimitTooHighFiller.json",
            "sourceHash": "49e90ea3ceee7ff39f93fa1126b03cb35619f743d977ede44cb53cf2776337e0"
        },
        "blocks": [
            {
                "blockHeader": {
                    "bloom": "0x00000000000000000000000000000000000000000000000000000000000000000000000000000000000000000000000000000000000000000000000000000000000000000000000000000000000000000000000000000000000000000000000000000000000000000000000000000000000000000000000000000000000000000000000000000000000000000000000000000000000000000000000000000000000000000000000000000000000000000000000000000000000000000000000000000000000000000000000000000000000000000000000000000000000000000000000000000000000000000000000000000000000000000000000000000000",
                    "coinbase": "0x8888f1f195afa192cfee860698584c030f4c9db1",
                    "difficulty": "0x020000",
                    "extraData": "",
                    "gasLimit": "0x2625a64",
                    "gasUsed": "0x00",
                    "hash": "0xf7cc671101c6eb45b0c286b432dd7b26d48952c777ee0f623bc63ede521302f9",
                    "mixHash": "0x0000000000000000000000000000000000000000000000000000000000000000",
                    "nonce": "0x0000000000000000",
                    "number": "0x01",
                    "parentHash": "0x965b4d08c1502c3528a1749be5fb2623652d5a87a88768daca6566228849e0aa",
                    "receiptTrie": "0x56e81f171bcc55a6ff8345e692c0f86e5b48e01b996cadc001622fb5e363b421",
                    "stateRoot": "0x35f92b42316d1a78441390629a65c1a68309a1bfbdad5be9bc18c45a0308343a",
                    "timestamp": "0x5c477752",
                    "transactionsTrie": "0x56e81f171bcc55a6ff8345e692c0f86e5b48e01b996cadc001622fb5e363b421",
                    "uncleHash": "0x1dcc4de8dec75d7aab85b567b6ccd41ad312451b948a7413f0a142fd40d49347"
                },
                "blocknumber": "",
                "rlp": "0xf901fef901f9a0965b4d08c1502c3528a1749be5fb2623652d5a87a88768daca6566228849e0aaa01dcc4de8dec75d7aab85b567b6ccd41ad312451b948a7413f0a142fd40d49347948888f1f195afa192cfee860698584c030f4c9db1a035f92b42316d1a78441390629a65c1a68309a1bfbdad5be9bc18c45a0308343aa056e81f171bcc55a6ff8345e692c0f86e5b48e01b996cadc001622fb5e363b421a056e81f171bcc55a6ff8345e692c0f86e5b48e01b996cadc001622fb5e363b421b901000000000000000000000000000000000000000000000000000000000000000000000000000000000000000000000000000000000000000000000000000000000000000000000000000000000000000000000000000000000000000000000000000000000000000000000000000000000000000000000000000000000000000000000000000000000000000000000000000000000000000000000000000000000000000000000000000000000000000000000000000000000000000000000000000000000000000000000000000000000000000000000000000000000000000000000000000000000000000000000000000000000000000000000000000000000083020000018402625a6480845c47775280a0000000000000000000000000000000000000000000000000000000000000000088000000000000000080c0c0",
                "transactions": [],
                "uncleHeaders": []
            }
        ],
        "genesisBlockHeader": {
            "bloom": "0x00000000000000000000000000000000000000000000000000000000000000000000000000000000000000000000000000000000000000000000000000000000000000000000000000000000000000000000000000000000000000000000000000000000000000000000000000000000000000000000000000000000000000000000000000000000000000000000000000000000000000000000000000000000000000000000000000000000000000000000000000000000000000000000000000000000000000000000000000000000000000000000000000000000000000000000000000000000000000000000000000000000000000000000000000000000",
            "coinbase": "0x8888f1f195afa192cfee860698584c030f4c9db1",
            "difficulty": "0x020000",
            "extraData": "0x42",
            "gasLimit": "0x2625a00",
            "gasUsed": "0x00",
            "hash": "0x965b4d08c1502c3528a1749be5fb2623652d5a87a88768daca6566228849e0aa",
            "mixHash": "0x56e81f171bcc55a6ff8345e692c0f86e5b48e01b996cadc001622fb5e363b421",
            "nonce": "0x0102030405060708",
            "number": "0x00",
            "parentHash": "0x0000000000000000000000000000000000000000000000000000000000000000",
            "receiptTrie": "0x56e81f171bcc55a6ff8345e692c0f86e5b48e01b996cadc001622fb5e363b421",
            "stateRoot": "0xd7cc3cb38059d3911f7c0206fad2ad077bc27bdf0ed649cd84140ec2a92ee807",
            "timestamp": "0x54c98c81",
            "transactionsTrie": "0x56e81f171bcc55a6ff8345e692c0f86e5b48e01b996cadc001622fb5e363b421",
            "uncleHash": "0x1dcc4de8dec75d7aab85b567b6ccd41ad312451b948a7413f0a142fd40d49347"
        },
        "genesisRLP": "0xf901faf901f5a00000000000000000000000000000000000000000000000000000000000000000a01dcc4de8dec75d7aab85b567b6ccd41ad312451b948a7413f0a142fd40d49347948888f1f195afa192cfee860698584c030f4c9db1a00000000000000000000000000000000000000000000000000000000000000000a056e81f171bcc55a6ff8345e692c0f86e5b48e01b996cadc001622fb5e363b421a00000000000000000000000000000000000000000000000000000000000000000b9010000000000000000000000000000000000000000000000000000000000000000000000000000000000000000000000000000000000000000000000000000000000000000000000000000000000000000000000000000000000000000000000000000000000000000000000000000000000000000000000000000000000000000000000000000000000000000000000000000000000000000000000000000000000000000000000000000000000000000000000000000000000000000000000000000000000000000000000000000000000000000000000000000000000000000000000000000000000000000000000000000000000000000000000000000000000830200008080808454c98c8180a0000000000000000000000000000000000000000000000000000000000000000088010203040506070880c0c0",
        "lastblockhash": "0xc8d7215ce5982a49d357bf122731892fd8604a0431f683e2f09f39e2a9fd6bf5",
        "network": "Frontier",
        "postState": {
            "0x8888f1f195afa192cfee860698584c030f4c9db1": {
                "balance": "0x4563918244f40000",
                "code": "",
                "nonce": "0x00",
                "storage": {}
            },
            "0xa94f5374fce5edbc8e2a8697c15331677e6ebf0b": {
                "balance": "0x02540be400",
                "code": "",
                "nonce": "0x00",
                "storage": {}
            }
        },
        "pre": {
            "0xa94f5374fce5edbc8e2a8697c15331677e6ebf0b": {
                "balance": "0x02540be400",
                "code": "",
                "nonce": "0x00",
                "storage": {}
            }
        },
        "sealEngine": "NoProof",
        "chainname": ""
    },
    "gasLimitTooHigh_Homestead": {
        "_info": {
            "comment": "",
            "filledwith": "testeth 1.6.0-alpha.0-12+commit.05b55e64",
            "lllcversion": "Version: 0.5.0-develop.2018.11.9+commit.9709dfe0.Linux.g++",
            "source": "src/BlockchainTestsFiller/bcValidBlockTest/gasLimitTooHighFiller.json",
            "sourceHash": "49e90ea3ceee7ff39f93fa1126b03cb35619f743d977ede44cb53cf2776337e0"
        },
        "blocks": [
            {
                "blockHeader": {
                    "bloom": "0x00000000000000000000000000000000000000000000000000000000000000000000000000000000000000000000000000000000000000000000000000000000000000000000000000000000000000000000000000000000000000000000000000000000000000000000000000000000000000000000000000000000000000000000000000000000000000000000000000000000000000000000000000000000000000000000000000000000000000000000000000000000000000000000000000000000000000000000000000000000000000000000000000000000000000000000000000000000000000000000000000000000000000000000000000000000",
                    "coinbase": "0x8888f1f195afa192cfee860698584c030f4c9db1",
                    "difficulty": "0x020000",
                    "extraData": "",
                    "gasLimit": "0x2625a64",
                    "gasUsed": "0x00",
                    "hash": "0xf7cc671101c6eb45b0c286b432dd7b26d48952c777ee0f623bc63ede521302f9",
                    "mixHash": "0x0000000000000000000000000000000000000000000000000000000000000000",
                    "nonce": "0x0000000000000000",
                    "number": "0x01",
                    "parentHash": "0x965b4d08c1502c3528a1749be5fb2623652d5a87a88768daca6566228849e0aa",
                    "receiptTrie": "0x56e81f171bcc55a6ff8345e692c0f86e5b48e01b996cadc001622fb5e363b421",
                    "stateRoot": "0x35f92b42316d1a78441390629a65c1a68309a1bfbdad5be9bc18c45a0308343a",
                    "timestamp": "0x5c477752",
                    "transactionsTrie": "0x56e81f171bcc55a6ff8345e692c0f86e5b48e01b996cadc001622fb5e363b421",
                    "uncleHash": "0x1dcc4de8dec75d7aab85b567b6ccd41ad312451b948a7413f0a142fd40d49347"
                },
                "blocknumber": "",
                "rlp": "0xf901fef901f9a0965b4d08c1502c3528a1749be5fb2623652d5a87a88768daca6566228849e0aaa01dcc4de8dec75d7aab85b567b6ccd41ad312451b948a7413f0a142fd40d49347948888f1f195afa192cfee860698584c030f4c9db1a035f92b42316d1a78441390629a65c1a68309a1bfbdad5be9bc18c45a0308343aa056e81f171bcc55a6ff8345e692c0f86e5b48e01b996cadc001622fb5e363b421a056e81f171bcc55a6ff8345e692c0f86e5b48e01b996cadc001622fb5e363b421b901000000000000000000000000000000000000000000000000000000000000000000000000000000000000000000000000000000000000000000000000000000000000000000000000000000000000000000000000000000000000000000000000000000000000000000000000000000000000000000000000000000000000000000000000000000000000000000000000000000000000000000000000000000000000000000000000000000000000000000000000000000000000000000000000000000000000000000000000000000000000000000000000000000000000000000000000000000000000000000000000000000000000000000000000000000000083020000018402625a6480845c47775280a0000000000000000000000000000000000000000000000000000000000000000088000000000000000080c0c0",
                "transactions": [],
                "uncleHeaders": []
            }
        ],
        "genesisBlockHeader": {
            "bloom": "0x00000000000000000000000000000000000000000000000000000000000000000000000000000000000000000000000000000000000000000000000000000000000000000000000000000000000000000000000000000000000000000000000000000000000000000000000000000000000000000000000000000000000000000000000000000000000000000000000000000000000000000000000000000000000000000000000000000000000000000000000000000000000000000000000000000000000000000000000000000000000000000000000000000000000000000000000000000000000000000000000000000000000000000000000000000000",
            "coinbase": "0x8888f1f195afa192cfee860698584c030f4c9db1",
            "difficulty": "0x020000",
            "extraData": "0x42",
            "gasLimit": "0x2625a00",
            "gasUsed": "0x00",
            "hash": "0x965b4d08c1502c3528a1749be5fb2623652d5a87a88768daca6566228849e0aa",
            "mixHash": "0x56e81f171bcc55a6ff8345e692c0f86e5b48e01b996cadc001622fb5e363b421",
            "nonce": "0x0102030405060708",
            "number": "0x00",
            "parentHash": "0x0000000000000000000000000000000000000000000000000000000000000000",
            "receiptTrie": "0x56e81f171bcc55a6ff8345e692c0f86e5b48e01b996cadc001622fb5e363b421",
            "stateRoot": "0xd7cc3cb38059d3911f7c0206fad2ad077bc27bdf0ed649cd84140ec2a92ee807",
            "timestamp": "0x54c98c81",
            "transactionsTrie": "0x56e81f171bcc55a6ff8345e692c0f86e5b48e01b996cadc001622fb5e363b421",
            "uncleHash": "0x1dcc4de8dec75d7aab85b567b6ccd41ad312451b948a7413f0a142fd40d49347"
        },
        "genesisRLP": "0xf901faf901f5a00000000000000000000000000000000000000000000000000000000000000000a01dcc4de8dec75d7aab85b567b6ccd41ad312451b948a7413f0a142fd40d49347948888f1f195afa192cfee860698584c030f4c9db1a00000000000000000000000000000000000000000000000000000000000000000a056e81f171bcc55a6ff8345e692c0f86e5b48e01b996cadc001622fb5e363b421a00000000000000000000000000000000000000000000000000000000000000000b9010000000000000000000000000000000000000000000000000000000000000000000000000000000000000000000000000000000000000000000000000000000000000000000000000000000000000000000000000000000000000000000000000000000000000000000000000000000000000000000000000000000000000000000000000000000000000000000000000000000000000000000000000000000000000000000000000000000000000000000000000000000000000000000000000000000000000000000000000000000000000000000000000000000000000000000000000000000000000000000000000000000000000000000000000000000000830200008080808454c98c8180a0000000000000000000000000000000000000000000000000000000000000000088010203040506070880c0c0",
        "lastblockhash": "0xc8d7215ce5982a49d357bf122731892fd8604a0431f683e2f09f39e2a9fd6bf5",
        "network": "Homestead",
        "postState": {
            "0x8888f1f195afa192cfee860698584c030f4c9db1": {
                "balance": "0x4563918244f40000",
                "code": "",
                "nonce": "0x00",
                "storage": {}
            },
            "0xa94f5374fce5edbc8e2a8697c15331677e6ebf0b": {
                "balance": "0x02540be400",
                "code": "",
                "nonce": "0x00",
                "storage": {}
            }
        },
        "pre": {
            "0xa94f5374fce5edbc8e2a8697c15331677e6ebf0b": {
                "balance": "0x02540be400",
                "code": "",
                "nonce": "0x00",
                "storage": {}
            }
        },
        "sealEngine": "NoProof",
        "chainname": ""
    }
}