{
    "futureUncleTimestampDifficultyDrop2_Byzantium": {
        "_info": {
            "comment": "",
            "filledwith": "testeth 1.6.0-alpha.0-13+commit.825d9c86",
            "lllcversion": "Version: 0.5.0-develop.2018.11.9+commit.9709dfe0.Linux.g++",
            "source": "src/BlockchainTestsFiller/bcUncleSpecialTests/futureUncleTimestampDifficultyDrop2Filler.json",
            "sourceHash": "8e05e22d26d680a41effbc2b9c3f21b251b63c1f74e922f0649b6d982e045f27"
        },
        "blocks": [
            {
                "blockHeader": {
                    "bloom": "0x00000000000000000000000000000000000000000000000000000000000000000000000000000000000000000000000000000000000000000000000000000000000000000000000000000000000000000000000000000000000000000000000000000000000000000000000000000000000000000000000000000000000000000000000000000000000000000000000000000000000000000000000000000000000000000000000000000000000000000000000000000000000000000000000000000000000000000000000000000000000000000000000000000000000000000000000000000000000000000000000000000000000000000000000000000000",
                    "coinbase": "0x8888f1f195afa192cfee860698584c030f4c9db1",
                    "difficulty": "0x04cefd",
                    "extraData": "",
                    "gasLimit": "0x2625a64",
                    "gasUsed": "0x5208",
                    "hash": "0x18e444b3a4044113d1709c8bbf65e7d06137966d8815611fe93ad43de1db11b5",
                    "mixHash": "0x0000000000000000000000000000000000000000000000000000000000000000",
                    "nonce": "0x0000000000000000",
                    "number": "0x01",
                    "parentHash": "0x2ea0ed8ab40f9ad90c0dc6eb5b01551746e4405388b3cdddd7f12b3a25cfd5db",
                    "receiptTrie": "0x056b23fbba480696b65fe5a59b8f2148a1299103c4f57df839233af2cf4ca2d2",
                    "stateRoot": "0xdaa1ca97a0f183a75c634dabfcf3e3710743668e840c520f6444d8fb44e69ec0",
                    "timestamp": "0x5c47c267",
                    "transactionsTrie": "0x5c9151c2413d1cd25c51ffb4ac38948acc1359bf08c6b49f283660e9bcf0f516",
                    "uncleHash": "0x1dcc4de8dec75d7aab85b567b6ccd41ad312451b948a7413f0a142fd40d49347"
                },
                "blocknumber": "1",
                "rlp": "0xf90263f901fba02ea0ed8ab40f9ad90c0dc6eb5b01551746e4405388b3cdddd7f12b3a25cfd5dba01dcc4de8dec75d7aab85b567b6ccd41ad312451b948a7413f0a142fd40d49347948888f1f195afa192cfee860698584c030f4c9db1a0daa1ca97a0f183a75c634dabfcf3e3710743668e840c520f6444d8fb44e69ec0a05c9151c2413d1cd25c51ffb4ac38948acc1359bf08c6b49f283660e9bcf0f516a0056b23fbba480696b65fe5a59b8f2148a1299103c4f57df839233af2cf4ca2d2b90100000000000000000000000000000000000000000000000000000000000000000000000000000000000000000000000000000000000000000000000000000000000000000000000000000000000000000000000000000000000000000000000000000000000000000000000000000000000000000000000000000000000000000000000000000000000000000000000000000000000000000000000000000000000000000000000000000000000000000000000000000000000000000000000000000000000000000000000000000000000000000000000000000000000000000000000000000000000000000000000000000000000000000000000000000000008304cefd018402625a64825208845c47c26780a0000000000000000000000000000000000000000000000000000000000000000088000000000000000080f862f86080018304cb2f94095e7baea6a6c7c4c2dfeb977efac326af552d870a801ba077c7cd36820c71821c1aed59de46e70e701c4a8dd89c9ba508ab722210f60da8a03f29825d40c7c3f7bff3ca69267e0f3fb74b2d18b8c2c4e3c135b5d3b06e288dc0",
                "transactions": [
                    {
                        "data": "0x",
                        "gasLimit": "0x04cb2f",
                        "gasPrice": "0x01",
                        "nonce": "0x00",
                        "r": "0x77c7cd36820c71821c1aed59de46e70e701c4a8dd89c9ba508ab722210f60da8",
                        "s": "0x3f29825d40c7c3f7bff3ca69267e0f3fb74b2d18b8c2c4e3c135b5d3b06e288d",
                        "to": "0x095e7baea6a6c7c4c2dfeb977efac326af552d87",
                        "v": "0x1b",
                        "value": "0x0a"
                    }
                ],
                "uncleHeaders": []
            },
            {
                "blockHeader": {
                    "bloom": "0x00000000000000000000000000000000000000000000000000000000000000000000000000000000000000000000000000000000000000000000000000000000000000000000000000000000000000000000000000000000000000000000000000000000000000000000000000000000000000000000000000000000000000000000000000000000000000000000000000000000000000000000000000000000000000000000000000000000000000000000000000000000000000000000000000000000000000000000000000000000000000000000000000000000000000000000000000000000000000000000000000000000000000000000000000000000",
                    "coinbase": "0x8888f1f195afa192cfee860698584c030f4c9db1",
                    "difficulty": "0x4cefd",
                    "extraData": "",
                    "gasLimit": "0x2625a64",
                    "gasUsed": "0x5208",
                    "hash": "0x31bd9996a291c84111bab4611898ceb949b3df8ed52e029e3e9f2f8c9e13b72d",
                    "mixHash": "0x0000000000000000000000000000000000000000000000000000000000000000",
                    "nonce": "0x0",
                    "number": "0x1",
                    "parentHash": "0x2ea0ed8ab40f9ad90c0dc6eb5b01551746e4405388b3cdddd7f12b3a25cfd5db",
                    "receiptTrie": "0x056b23fbba480696b65fe5a59b8f2148a1299103c4f57df839233af2cf4ca2d2",
                    "stateRoot": "0xafa912463a5b4eb0c07cf26dbba6281effdc1d109b6fa28c961647217d90d39d",
                    "timestamp": "0x5c47c268",
                    "transactionsTrie": "0xc673e076264c4669a5c2e479f1757b78e42511efe33b5fd2c0a23b929c7f87f5",
                    "uncleHash": "0x1dcc4de8dec75d7aab85b567b6ccd41ad312451b948a7413f0a142fd40d49347"
                },
                "blocknumber": "2",
                "rlp": "0xf90262f901fba02ea0ed8ab40f9ad90c0dc6eb5b01551746e4405388b3cdddd7f12b3a25cfd5dba01dcc4de8dec75d7aab85b567b6ccd41ad312451b948a7413f0a142fd40d49347948888f1f195afa192cfee860698584c030f4c9db1a0afa912463a5b4eb0c07cf26dbba6281effdc1d109b6fa28c961647217d90d39da0c673e076264c4669a5c2e479f1757b78e42511efe33b5fd2c0a23b929c7f87f5a0056b23fbba480696b65fe5a59b8f2148a1299103c4f57df839233af2cf4ca2d2b90100000000000000000000000000000000000000000000000000000000000000000000000000000000000000000000000000000000000000000000000000000000000000000000000000000000000000000000000000000000000000000000000000000000000000000000000000000000000000000000000000000000000000000000000000000000000000000000000000000000000000000000000000000000000000000000000000000000000000000000000000000000000000000000000000000000000000000000000000000000000000000000000000000000000000000000000000000000000000000000000000000000000000000000000000000000008304cefd018402625a64825208845c47c26880a0000000000000000000000000000000000000000000000000000000000000000088000000000000000080f861f85f01018304cb2f94095e7baea6a6c7c4c2dfeb977efac326af552d870a801ba033c86e64d708c97c6b135cadff79dbf45985aa0b53694789e90d15f756765f239f1d0f8caa2a16405148c9d85581be5814960010f3cba938b5501590cea1f7cfc0",
                "transactions": [
                    {
                        "data": "0x",
                        "gasLimit": "0x04cb2f",
                        "gasPrice": "0x01",
                        "nonce": "0x01",
                        "r": "0x33c86e64d708c97c6b135cadff79dbf45985aa0b53694789e90d15f756765f23",
                        "s": "0x1d0f8caa2a16405148c9d85581be5814960010f3cba938b5501590cea1f7cf",
                        "to": "0x095e7baea6a6c7c4c2dfeb977efac326af552d87",
                        "v": "0x1b",
                        "value": "0x0a"
                    }
                ],
                "uncleHeaders": []
            },
            {
                "blockHeader": {
                    "bloom": "0x00000000000000000000000000000000000000000000000000000000000000000000000000000000000000000000000000000000000000000000000000000000000000000000000000000000000000000000000000000000000000000000000000000000000000000000000000000000000000000000000000000000000000000000000000000000000000000000000000000000000000000000000000000000000000000000000000000000000000000000000000000000000000000000000000000000000000000000000000000000000000000000000000000000000000000000000000000000000000000000000000000000000000000000000000000000",
                    "coinbase": "0x8888f1f195afa192cfee860698584c030f4c9db1",
                    "difficulty": "0x04d02f",
                    "extraData": "",
                    "gasLimit": "0x2625a64",
                    "gasUsed": "0x5208",
                    "hash": "0x7a9beaf6272f22f1b3a861b1b6b6a34611255ebb9f07e093497f263c08d5e6d6",
                    "mixHash": "0x0000000000000000000000000000000000000000000000000000000000000000",
                    "nonce": "0x0000000000000000",
                    "number": "0x03",
                    "parentHash": "0x2ea0ed8ab40f9ad90c0dc6eb5b01551746e4405388b3cdddd7f12b3a25cfd5db",
                    "receiptTrie": "0x056b23fbba480696b65fe5a59b8f2148a1299103c4f57df839233af2cf4ca2d2",
                    "stateRoot": "0xaa4b1943360f5a0ea3b1a2a1d661de5b6d773eb371bd84b319837d96ffc7b630",
                    "timestamp": "0x5c47c269",
                    "transactionsTrie": "0x1722b8a91bfc4f5614ce36ee77c7cce6620ab4af36d3c54baa66d7dbeb7bce1a",
                    "uncleHash": "0x2f8aa73a8c6cb0e76b8aca43730efbbb6e153b848c6345604611926425ce81af"
                },
                "blocknumber": "3",
                "rlp": "0xf90263f901fba02ea0ed8ab40f9ad90c0dc6eb5b01551746e4405388b3cdddd7f12b3a25cfd5dba01dcc4de8dec75d7aab85b567b6ccd41ad312451b948a7413f0a142fd40d49347948888f1f195afa192cfee860698584c030f4c9db1a0aa4b1943360f5a0ea3b1a2a1d661de5b6d773eb371bd84b319837d96ffc7b630a01722b8a91bfc4f5614ce36ee77c7cce6620ab4af36d3c54baa66d7dbeb7bce1aa0056b23fbba480696b65fe5a59b8f2148a1299103c4f57df839233af2cf4ca2d2b90100000000000000000000000000000000000000000000000000000000000000000000000000000000000000000000000000000000000000000000000000000000000000000000000000000000000000000000000000000000000000000000000000000000000000000000000000000000000000000000000000000000000000000000000000000000000000000000000000000000000000000000000000000000000000000000000000000000000000000000000000000000000000000000000000000000000000000000000000000000000000000000000000000000000000000000000000000000000000000000000000000000000000000000000000000000008304d02f038402625a64825208845c47c26980a0000000000000000000000000000000000000000000000000000000000000000088000000000000000080f862f86002018304cb2f94095e7baea6a6c7c4c2dfeb977efac326af552d870a801ca015eb1cc916728b9799e55c489857727669afb2986433d5f54cde11faaed9f0eea05d36f6d06c34aae8d0a2a5895c8ba4a17ad46a5fa59f361cb3e7e01a23030e38c0",
                "transactions": [
                    {
                        "data": "0x",
                        "gasLimit": "0x04cb2f",
                        "gasPrice": "0x01",
                        "nonce": "0x02",
                        "r": "0x15eb1cc916728b9799e55c489857727669afb2986433d5f54cde11faaed9f0ee",
                        "s": "0x5d36f6d06c34aae8d0a2a5895c8ba4a17ad46a5fa59f361cb3e7e01a23030e38",
                        "to": "0x095e7baea6a6c7c4c2dfeb977efac326af552d87",
                        "v": "0x1c",
                        "value": "0x0a"
                    }
                ],
                "uncleHeaders": [
                    {
                        "bloom": "0x00000000000000000000000000000000000000000000000000000000000000000000000000000000000000000000000000000000000000000000000000000000000000000000000000000000000000000000000000000000000000000000000000000000000000000000000000000000000000000000000000000000000000000000000000000000000000000000000000000000000000000000000000000000000000000000000000000000000000000000000000000000000000000000000000000000000000000000000000000000000000000000000000000000000000000000000000000000000000000000000000000000000000000000000000000000",
                        "coinbase": "0x0000000000000000000000000000000000000000",
                        "difficulty": "0x0493d2",
                        "extraData": "",
                        "gasLimit": "0x2fefba",
                        "gasUsed": "0x00",
                        "hash": "0xe7e21eb52c1440d1bcc0896cfb582238ebce50eca8c26ee4f5dca5f71e503894",
                        "mixHash": "0x0000000000000000000000000000000000000000000000000000000000000000",
                        "nonce": "0x0000000000000000",
                        "number": "0x02",
                        "parentHash": "0x18e444b3a4044113d1709c8bbf65e7d06137966d8815611fe93ad43de1db11b5",
                        "receiptTrie": "0x56e81f171bcc55a6ff8345e692c0f86e5b48e01b996cadc001622fb5e363b421",
                        "stateRoot": "0x5c2e5a51a79da58791cdfe572bcfa3dfe9c860bf7fad7d9738a1aace56ef9332",
                        "timestamp": "0x5c940da7",
                        "transactionsTrie": "0x56e81f171bcc55a6ff8345e692c0f86e5b48e01b996cadc001622fb5e363b421",
                        "uncleHash": "0x1dcc4de8dec75d7aab85b567b6ccd41ad312451b948a7413f0a142fd40d49347"
                    }
                ]
            }
        ],
        "genesisBlockHeader": {
            "bloom": "0x00000000000000000000000000000000000000000000000000000000000000000000000000000000000000000000000000000000000000000000000000000000000000000000000000000000000000000000000000000000000000000000000000000000000000000000000000000000000000000000000000000000000000000000000000000000000000000000000000000000000000000000000000000000000000000000000000000000000000000000000000000000000000000000000000000000000000000000000000000000000000000000000000000000000000000000000000000000000000000000000000000000000000000000000000000000",
            "coinbase": "0x8888f1f195afa192cfee860698584c030f4c9db1",
            "difficulty": "0x050d40",
            "extraData": "0x42",
            "gasLimit": "0x2625a00",
            "gasUsed": "0x00",
            "hash": "0x2ea0ed8ab40f9ad90c0dc6eb5b01551746e4405388b3cdddd7f12b3a25cfd5db",
            "mixHash": "0x56e81f171bcc55a6ff8345e692c0f86e5b48e01b996cadc001622fb5e363b421",
            "nonce": "0x0102030405060708",
            "number": "0x00",
            "parentHash": "0x0000000000000000000000000000000000000000000000000000000000000000",
            "receiptTrie": "0x56e81f171bcc55a6ff8345e692c0f86e5b48e01b996cadc001622fb5e363b421",
            "stateRoot": "0xf9e08a15b29d855a18627005f2effda79a7a23573276581810b8369805aad6fa",
            "timestamp": "0x01",
            "transactionsTrie": "0x56e81f171bcc55a6ff8345e692c0f86e5b48e01b996cadc001622fb5e363b421",
            "uncleHash": "0x1dcc4de8dec75d7aab85b567b6ccd41ad312451b948a7413f0a142fd40d49347"
        },
        "genesisRLP": "0xf901f6f901f1a00000000000000000000000000000000000000000000000000000000000000000a01dcc4de8dec75d7aab85b567b6ccd41ad312451b948a7413f0a142fd40d49347948888f1f195afa192cfee860698584c030f4c9db1a00000000000000000000000000000000000000000000000000000000000000000a056e81f171bcc55a6ff8345e692c0f86e5b48e01b996cadc001622fb5e363b421a00000000000000000000000000000000000000000000000000000000000000000b901000000000000000000000000000000000000000000000000000000000000000000000000000000000000000000000000000000000000000000000000000000000000000000000000000000000000000000000000000000000000000000000000000000000000000000000000000000000000000000000000000000000000000000000000000000000000000000000000000000000000000000000000000000000000000000000000000000000000000000000000000000000000000000000000000000000000000000000000000000000000000000000000000000000000000000000000000000000000000000000000000000000000000000000000000000000083050d408080800180a0000000000000000000000000000000000000000000000000000000000000000088010203040506070880c0c0",
        "lastblockhash": "0x7a9beaf6272f22f1b3a861b1b6b6a34611255ebb9f07e093497f263c08d5e6d6",
        "network": "Byzantium",
        "postState": {
            "0x0000000000000000000000000000000000000000": {
                "balance": "0x246ddf9797668000",
                "code": "",
                "nonce": "0x00",
                "storage": {}
            },
            "0x095e7baea6a6c7c4c2dfeb977efac326af552d87": {
                "balance": "0x1e",
                "code": "",
                "nonce": "0x00",
                "storage": {}
            },
            "0x8888f1f195afa192cfee860698584c030f4c9db1": {
                "balance": "0x7e337d71ba365618",
                "code": "",
                "nonce": "0x00",
                "storage": {}
            },
            "0xa94f5374fce5edbc8e2a8697c15331677e6ebf0b": {
                "balance": "0x09184e71a9ca",
                "code": "",
                "nonce": "0x03",
                "storage": {}
            }
        },
        "pre": {
            "0xa94f5374fce5edbc8e2a8697c15331677e6ebf0b": {
                "balance": "0x09184e72a000",
                "code": "",
                "nonce": "0x00",
                "storage": {}
            }
        },
        "sealEngine": "NoProof",
        "chainname": ""
    }
}